:020000040000FA
:0403000062EF04F0B4
:0803080072EF04F08A80BC6A68
:06031000060EBA6E120099
:0803180031EF04F0395200003E
:1003200001E11200FD0E00000000000000000000CE
:1003300000000000000000000000000000000000BD
:1003400000000000000000000000000000000000AD
:10035000000000000000000000000000000000009D
:10036000000000000000000000000000000000008D
:10037000000000000000000000000000000000007D
:10038000000000000000000000000000000000006D
:10039000000000000000000000000000FF0FD8A4D3
:1003A000C2D70000000000000000000000000000B4
:1003B000000000000000000000000000000000003D
:1003C000000000000000000000000000000000002D
:1003D000000000000000000000000000000000001D
:1003E000000000000000000000000000000000000D
:1003F00000000000000000000000000000000000FD
:1004000000000000000000000000000000000000EC
:10041000000000000000392E85D71200FA0E396E58
:100420008EEC01F0FA0E396E8EEC01F0FA0E396E98
:100430008EEC01F0FA0E396E8EEC01F01E2EEED726
:100440001200CD90355206E0350419E0020E3562F7
:100450002DD021D000EE0CF0E9503450366E376AC2
:10046000D890363637363650E9263750EA22E92A10
:10047000000E386EEF6AE9063850EF6E17D034522E
:1004800005E18F0E0C6E6B0E0D6E10D05F0E0E6EB2
:10049000730E0F6E0BD0345205E15F0E0C6E730EAF
:1004A0000D6E04D08F0E0E6E6B0E0F6ECD8012008F
:1004B000F0961250306E1350316EF0863050326E1E
:1004C0003150336E1200030EC4142A6E296AC350D1
:1004D00029122950106E2A50116E010E115C02E192
:1004E000DD0E105C16E2346A356A21EC02F0010E72
:1004F000346E356A21EC02F08A9A8A88FA0E396ED7
:100500008EEC01F08A9A8A98FA0E396E8EEC01F020
:10051000F3D7C2821200A09210502C6E11502D6E93
:10052000A0822C502E6E2D502F6E120016B402D0C9
:100530001B6A1684A3AA38D0A4AA36D07450296E98
:10054000ABA203D0AB98AB8812001B6606D0A50EF9
:10055000296203D0010E1B6E27D01B5225E02952C1
:1005600003E0290411E01FD08BEC02F02E502A6E1C
:100570002F502B6E2B50146E2A50156E020E2C6EBF
:100580002C501A6EA3880FD058EC02F032502A6E0D
:1005900033502B6E2B50146E2A50156E020E2C6E9B
:1005A0002C501A6EA3881B6AA3A81200A4A81200DC
:1005B000000E1A64120000EE14F0E9502D6A1A5071
:1005C00002082C6ED8A02D062C50E9262D50EA22C8
:1005D000EF50736E1A06D8B4A398120016B203D067
:1005E000186A196A1682182A1E0E186001D003D0E4
:1005F00063EC02F0186A192A030E196001D003D0C7
:1006000086EC01F0196AA1921200CD909EA037D01D
:10061000000E0C640D6601D00CD0FF0E0D5C02E1E3
:10062000FF0E0C5C06E20D50BF6E0C50BE6E9D843A
:1006300001D09D940C5204E10D5202E1829401D04C
:100640008284000E0E640F6601D00CD0FF0E0F5C8A
:1006500002E1FF0E0E5C06E20F50686E0E50676EF0
:10066000A08001D0A0900E5204E10F5202E18292CC
:1006700001D08282630ECF6EBF0ECE6E9E909DA47F
:1006800004D09EA402D082949E94A0A004D0A1A0E5
:1006900002D08292A190CD801200BA948A909E924C
:1006A000120016B003D0010E176E1680175204E028
:1006B000D58EF19A176A10D0D59EF18A010E176E69
:1006C000D650126E136A276AD750286E275012121E
:1006D00028501312D76AD66AF09012008A0E756EEF
:1006E000766A080E706E938E938C900E716E240E47
:1006F000726ECF0EA516A38A1200B368B268330ECD
:10070000B16EA292A08212000F013A953A9394948E
:100710009492829482920A0EBD6E666E496B9F948B
:10072000A290630ECF6EBF0ECE6E330ECD6E9F9035
:100730009D8012000F01399139938A909390938292
:10074000030ED56ED76AD66AF18AF08CF086140E45
:10075000BB6E9F929D821200346A010E356E21ECB1
:1007600002F0010E346E356E21EC02F01E6A1F6A33
:10077000206A216A226A040E226016D058EC02F028
:100780003250236E3350246E256A266A23501E266B
:1007900024501F222550202226502122640E396E1B
:1007A0008EEC01F0222AE7D7D890213220321F3276
:1007B0001E32D890213220321F321E321E501C6E43
:1007C0001F501D6E090E1D5C02E1100E1C5C0CE238
:1007D0008A9A8A88010E346E356A21EC02F0010E85
:1007E0001E6E0EEC02F0C2D78A8A8A98010E346E11
:1007F000356E21EC02F0BAD792800F013881C16AC0
:10080000860EC06E010EC26EC282C2B2FED7030E49
:10081000C4141D6E1C6AC3501C121C50106E1D5057
:10082000116E12006EEC03F0FCEC03F09AEC03F096
:1008300084EC03F07DEC03F0939A93988A9A8A985B
:10084000D08EC00EF212346A356A21EC02F0010E2D
:10085000346E356A21EC02F08A8A8A98ACEC03F097
:10086000FDD7D8CF05F0E0CF06F0EACF07F0E9CF0B
:1008700008F0F4CF09F0F3CF0AF00B6EA3AA03D06F
:10088000A4AA01D004D0A3A804D0A4A802D096ECB6
:1008900002F005EC03F09EB24DEC03F0A0A204D0F0
:1008A000A1A202D0EEEC02F00B500AC0F3FF09C087
:1008B000F4FF08C0E9FF07C0EAFF06C0E0FF05C07B
:1008C000D8FF1000106A116A1690126A136A0C6A37
:1008D0000D6A0E6A0F6A16921694146A156A1A6ADD
:1008E00012EF04F0EACF01F0E9CF02F0F4CF03F009
:1008F000F3CF04F0F0A604D0F0A002D051EC03F046
:1009000004C0F3FF03C0F4FF02C0E9FF01C0EAFF27
:020910001100D4
:020000040030CA
:0E000000FF38E6FCFF75BBFFFFFFFFFFFFFFB1
:00000001FF
