:020000040000FA
:040300002CEF04F0EA
:0803080039EF04F0330EB16E71
:06031000A292A08212007F
:0803180005EF04F0295200007A
:1003200001E11200030EFF0FD8A4FDD70000292E13
:10033000F9D712001B52000001E11200FD0E00006F
:1003400000000000000000000000000000000000AD
:10035000000000000000000000000000000000009D
:10036000000000000000000000000000000000008D
:10037000000000000000000000000000000000007D
:10038000000000000000000000000000000000006D
:10039000000000000000000000000000000000005D
:1003A000000000000000000000000000000000004D
:1003B00000000000FF0FD8A4C2D70000000000001A
:1003C000000000000000000000000000000000002D
:1003D000000000000000000000000000000000001D
:1003E000000000000000000000000000000000000D
:1003F00000000000000000000000000000000000FD
:1004000000000000000000000000000000000000EC
:1004100000000000000000000000000000000000DC
:1004200000000000000000000000000000001B2E83
:1004300085D712002E50F86E2D50F76E2C50F66EA8
:10044000940EA66E550EA76EAA0EA76EA682120077
:10045000F09612502C6E13502D6EF0862C502E6E8E
:100460002D502F6E12008A80140E296E8EEC01F032
:100470008A901200030EC4142A6E296AC3502912EE
:100480002950106E2A50116EC2821200A092105094
:100490002C6E11502D6EA0822C502E6E2D502F6E72
:1004A000120016B204D0186A146A156A1682A3AA3A
:1004B00049D0A4AA47D07450296E186606D0A50E5C
:1004C000296203D0010E186E3DD018523BE029522C
:1004D0000AE0290418E0020E296201D024D0030E9C
:1004E00029622FD029D046EC02F02E502A6E2F50D0
:1004F0002B6E2B50146E2A50156E14502C6EA38840
:100500002C50736E1ED028EC02F02E502A6E2F5005
:100510002B6E2B50146E2A50156E14502C6EA3881F
:100520002C50736E0ED0C00E2C6E2D682E6A2F6A62
:100530001AEC02F0FF00FFD7010E2C6EA3982C508E
:10054000736E186AA3A81200A4A81200A3981550ED
:10055000736E120016B403D0196A1A6A1684192A27
:100560001E0E196001D003D03AEC02F0196A1A2A63
:10057000030E1A6001D003D033EC02F01A6AA19284
:100580001200CD909EA037D0000E0C640D6601D0F5
:100590000CD0FF0E0D5C02E1FF0E0C5C06E20D506C
:1005A000BF6E0C50BE6E9D8401D09D940C5204E130
:1005B0000D5202E1829401D08284000E0E640F6617
:1005C00001D00CD0FF0E0F5C02E1FF0E0E5C06E2C4
:1005D0000F50686E0E50676EA08001D0A0900E5232
:1005E00004E10F5202E1829201D08282630ECF6E4B
:1005F000BF0ECE6E9E909DA404D09EA402D0829485
:100600009E94A0A004D0A1A002D08292A190CD80FF
:100610001200236A246A276A286A256A100E2514A4
:10062000266E26661200D890273628361F362036CA
:10063000233624362150235C22502462245C05E3B7
:100640002150235E2250245A2780252AE7D716B04E
:1006500003D0010E176E1680175204E0D58EF19A62
:10066000176A1DD0D59EF18A010E176ED650126EF4
:10067000136A1F6AD750206E1F5012122050131297
:1006800012501F6E1350206E300E216E226A09EC3C
:1006900003F02750126E2850136ED76AD66AF09076
:1006A00012008A0E756E766A080E706E938E938CA9
:1006B000900E716E240E726ECF0EA516300EA31220
:1006C0001200CD901C5206E01C0414E0020E1C62C5
:1006D00028D01CD000EE0CF0E9501B501D6ED890B5
:1006E0001D34E926E92A000E1E6EEF6AE9061E5047
:1006F000EF6E17D01B5205E18F0E0C6E6B0E0D6E58
:1007000010D05F0E0E6E730E0F6E0BD01B5205E1F4
:100710005F0E0C6E730E0D6E04D08F0E0E6E6B0E90
:100720000F6ECD801200949494920F013A953A93F3
:10073000829482920A0EBD6E666E496B9F94A2905F
:10074000630ECF6EBF0ECE6E9F909D80330ECD6E2A
:1007500012008A90939093820F0139913993030E7E
:10076000D56ED76AD66AF18AF08CF0861200928034
:100770000F013881C16A860EC06E010EC26EC28240
:10078000C2B2FED7030EC4141C6E1B6AC3501B12E8
:100790001B50106E1C50116E1200400E9B6ED26AE0
:1007A000780ED36E51EC03F0B7EC03F0A9EC03F034
:1007B00093EC03F086EC01F0939A93988A9A8A98C6
:1007C000D08EC00EF2121B6A1C6A61EC03F0010E9F
:1007D0001B6E1C6A61EC03F08A8A8A981B6A81AAE4
:1007E0001B2A1BB08A8A1BA08A9A1B6A81A81B2A13
:1007F0001BB08A881BA08A98C80E1B6E9AEC01F069
:10080000C80E1B6E9AEC01F0E9D7D8CF05F0E0CF07
:1008100006F0EACF07F0E9CF08F0F4CF09F0F3CF04
:100820000AF00B6EA4AAA4B851EC02F0C1EC02F0DD
:10083000A0A204D0A1A202D0AAEC02F00B500AC0E0
:10084000F3FF09C0F4FF08C0E9FF07C0EAFF06C0D4
:10085000E0FF05C0D8FF1000106A116A1690126AF6
:10086000136A16920C6A0D6A0E6A0F6A1694CDEF1F
:1008700003F0EACF01F0E9CF02F0F4CF03F0F3CFB9
:1008800004F0F0A604D0F0A002D027EC03F004C0DE
:10089000F3FF03C0F4FF02C0E9FF01C0EAFF11004B
:020000040030CA
:0E000000FF38E6FCFF75BBFFFFFFFFFFFFFFB1
:00000001FF
