:020000040000FA
:040300009CEF05F079
:08030800B0EF05F08A80BC6A29
:06031000060EBA6E120099
:080318006BEF05F048520000F4
:1003200001E11200FD0E00000000000000000000CE
:1003300000000000000000000000000000000000BD
:1003400000000000000000000000000000000000AD
:10035000000000000000000000000000000000009D
:10036000000000000000000000000000000000008D
:10037000000000000000000000000000000000007D
:10038000000000000000000000000000000000006D
:10039000000000000000000000000000FF0FD8A4D3
:1003A000C2D70000000000000000000000000000B4
:1003B000000000000000000000000000000000003D
:1003C000000000000000000000000000000000002D
:1003D000000000000000000000000000000000001D
:1003E000000000000000000000000000000000000D
:1003F00000000000000000000000000000000000FD
:1004000000000000000000000000000000000000EC
:10041000000000000000482E85D71200CD90445205
:1004200006E0440419E0020E44622DD021D000EE13
:1004300016F0E9504350456E466AD8904536463628
:100440004550E9264650EA22E92A000E476EEF6A37
:10045000E9064750EF6E17D0435205E18F0E166E36
:100460006B0E176E10D05F0E186E730E196E0BD0D8
:10047000435205E15F0E166E730E176E04D08F0E99
:10048000186E6B0E196ECD801200F0961C503F6EE8
:100490001D50406EF0863F50416E4050426E12003B
:1004A000030EC4143A6E396AC350391239501A6EA9
:1004B0003A501B6E010E1B5C02E1DD0E1A5C16E267
:1004C000436A446A0EEC02F0010E436E446A0EEC7D
:1004D00002F08A9A8A88FA0E486E8EEC01F08A9AA7
:1004E0008A98FA0E486E8EEC01F0F3D7C2821200A1
:1004F000A0921A503B6E1B503C6EA0823B503D6E4A
:100500003C503E6E120020B602D0276A2086A3AA75
:1005100038D0A4AA36D07450386EABA203D0AB98B2
:10052000AB881200276606D0A50E386203D0010EF4
:10053000276E27D0275225E0385203E0380411E017
:100540001FD078EC02F03D50396E3E503A6E3A5072
:100550001E6E39501F6E020E3B6E3B50266EA388F6
:100560000FD045EC02F04150396E42503A6E3A508D
:100570001E6E39501F6E020E3B6E3B50266EA388D6
:10058000276AA3A81200A4A81200000E2664120075
:1005900000EE1EF0E9503C6A265002083B6ED8A0DF
:1005A0003C063B50E9263C50EA22EF50736E26068B
:1005B000D8B4A398120020B403D0246A256A2084FA
:1005C000242A1E0E246001D003D050EC02F0246ACD
:1005D000252A030E256001D033D0386A050E386015
:1005E0002CD000EE0CF0E9503850396E3A6AD890B1
:1005F00039363A363950E9263A50EA22EE503B6E07
:10060000000E3B64EF6601D016D000EE0CF0E9500E
:1006100038503B6E3C6AD8903B363C363B50E9261E
:100620003C50EA22EE503D6E3D52D8B4EF063D06F6
:10063000E9063D50EF6E382AD1D7256A86EC01F0E5
:10064000A1921200CD909EA037D0000E16641766BE
:1006500001D00CD0FF0E175C02E1FF0E165C06E223
:100660001750BF6E1650BE6E9D8401D09D941652D9
:1006700004E1175202E1829401D08284000E1864D2
:10068000196601D00CD0FF0E195C02E1FF0E185C58
:1006900006E21950686E1850676EA08001D0A090D5
:1006A000185204E1195202E1829201D08282630E53
:1006B000CF6EBF0ECE6E9E909DA404D09EA402D09D
:1006C00082949E94A0A004D0A1A002D08292A19076
:1006D000CD801200BA948A909E92120020B203D06C
:1006E000010E226E2082225204E0D58EF19A226AF7
:1006F00010D0D59EF18A010E226ED6501C6E1D6A56
:10070000366AD750376E36501C1237501D12D76AD2
:10071000D66AF0901200306A316A346A356A326AF9
:10072000100E3214336E33661200D89034363536DC
:100730002C362D36303631362E50305C2F5031620B
:10074000315C05E32E50305E2F50315A3480322A0E
:10075000E7D7050E2A6001D002D02E6A1200A092BF
:1007600000EE0CF0E9502A502C6E2D6AD8902C36F1
:100770002D362C50E9262D50EA22EE502F6E2F52A6
:1007800005E1EF5203E1010E2B6E01D02B6AA0822E
:100790002B502E6E1200050E2A601200A09200EE61
:1007A0000CF0E9502A502D6E2E6AD8902D362E3638
:1007B0002D50E9262E50EA22E92A2B502F6E2C507C
:1007C000EF6EE9062F50EF6EA08212008A0E756E52
:1007D000766A080E706E938E938C900E716E240E56
:1007E000726ECF0EA516A38A1200B368B268330EDC
:1007F000B16EA292A08212000F015551236E040E19
:10080000516F12000F013A953A9394949492829406
:1008100082920A0EBD6E666E496B9F94A290630E23
:10082000CF6EBF0ECE6E330ECD6E9F909D801200A8
:100830000F01399139938A9093909382030ED56E6C
:10084000D76AD66AF18AF08CF086140EBB6E9F923E
:100850009D821200286A296A20B002D0216A208075
:10086000216A2A6A280E2B6E2C6ACBEC03F0020E4A
:100870002A6E2B6A2C6ACBEC03F0140E486E8EECB9
:1008800001F045EC02F041502C6E42502D6E3A0EB4
:100890002E6E2F6A8BEC03F034502A6E35502B6E7F
:1008A0002A50286E2B50296E140E2864296600D019
:1008B0002A6AA9EC03F02E5200E021520AE021043A
:1008C00017E0020E216201D04ED0030E2162D5D76F
:1008D00088D0500E28642966D0D78A8A8A982A6AD6
:1008E000280E2B6E2C6ACBEC03F0010E216EC5D7BF
:1008F000500E2864296622D08A8A8A981E0E28649F
:10090000296601D00BD0436A010E446E0EEC02F052
:10091000010E436E446E0EEC02F009D0436A446A45
:100920000EEC02F0010E436E446A0EEC02F02A6AED
:10093000280E2B6E2C6ACBEC03F09FD78A9A8A88FC
:10094000436A446A0EEC02F0010E436E446A0EECF8
:1009500002F0020E216E010E2A6E0A0E2B6E2C6A18
:10096000CBEC03F08AD7500E2864296614D08A8A0B
:100970008A98436A446A0EEC02F0010E436E446AA0
:100980000EEC02F02A6A280E2B6E2C6ACBEC03F0D8
:10099000010E216E72D7010E2A6EA9EC03F02E52C1
:1009A00013E0436A446A0EEC02F0010E436E446A9F
:1009B0000EEC02F0010E2A6E140E2B6E2C6ACBEC9C
:1009C00003F0030E216E59D78A9A8A88436A020E71
:1009D000446E0EEC02F0010E436E446E0EEC02F01B
:1009E0004CD7500E2864296614D08A8A8A98436AA4
:1009F000446A0EEC02F0010E436E446A0EEC02F003
:100A00002A6A280E2B6E2C6ACBEC03F0010E216EA5
:100A100034D7010E2A6EA9EC03F02E5213E0436A7C
:100A2000446A0EEC02F0010E436E446A0EEC02F0D2
:100A3000010E2A6E140E2B6E2C6ACBEC03F0020E04
:100A4000216E1BD78A9A8A88436A010E446E0EEC87
:100A500002F0010E436E020E446E0EEC02F00DD752
:100A600092800F013881C16A860EC06E010EC26E7F
:100A7000C282C2B2FED7030EC414296E286AC350C4
:100A8000281228501A6E29501B6E1200E6EC03F053
:100A900030EC05F018EC04F002EC04F0F5EC03F097
:100AA000939A93988A9A8A98FCEC03F0D08EC00EA1
:100AB000F212436A446A0EEC02F0010E436E446A7D
:100AC0000EEC02F0780E486E8EEC01F08A8A8A985D
:100AD0002AEC04F0FDD7D8CF05F0E0CF06F0EACF3E
:100AE00007F0E9CF08F0F4CF09F0F3CF0AF00B6E6E
:100AF000A3AA03D0A4AA01D004D0A3A804D0A4A878
:100B000002D083EC02F022EC03F09EB26AEC03F018
:100B1000A0A204D0A1A202D0DBEC02F00B500AC0CC
:100B2000F3FF09C0F4FF08C0E9FF07C0EAFF06C0F1
:100B3000E0FF05C0D8FF10001A6A1B6A20902092BF
:100B40001C6A1D6A166A176A186A196A236A209451
:100B50000C6A0D6A20961E6A1F6A266A46EF05F027
:100B6000EACF01F0E9CF02F0F4CF03F0F3CF04F0C5
:100B7000F0A604D0F0A002D06EEC03F004C0F3FFA6
:0E0B800003C0F4FF02C0E9FF01C0EAFF11004C
:020000040030CA
:0E000000FF38E6FCFF75BBFFFFFFFFFFFFFFB1
:00000001FF
