:020000040000FA
:040300009AEF05F07B
:08030800ADEF05F08A80BC6A2C
:06031000060EBA6E120099
:0803180069EF05F049520000F5
:1003200001E11200FD0E00000000000000000000CE
:1003300000000000000000000000000000000000BD
:1003400000000000000000000000000000000000AD
:10035000000000000000000000000000000000009D
:10036000000000000000000000000000000000008D
:10037000000000000000000000000000000000007D
:10038000000000000000000000000000000000006D
:10039000000000000000000000000000FF0FD8A4D3
:1003A000C2D70000000000000000000000000000B4
:1003B000000000000000000000000000000000003D
:1003C000000000000000000000000000000000002D
:1003D000000000000000000000000000000000001D
:1003E000000000000000000000000000000000000D
:1003F00000000000000000000000000000000000FD
:1004000000000000000000000000000000000000EC
:10041000000000000000492E85D71200CD90455203
:1004200006E0450419E0020E45622DD021D000EE11
:1004300016F0E9504450466E476AD8904636473623
:100440004650E9264750EA22E92A000E486EEF6A34
:10045000E9064850EF6E17D0445205E18F0E166E34
:100460006B0E176E10D05F0E186E730E196E0BD0D8
:10047000445205E15F0E166E730E176E04D08F0E98
:10048000186E6B0E196ECD801200F0961C50406EE7
:100490001D50416EF0864050426E4150436E120036
:1004A000030EC4143B6E3A6AC3503A123A501A6EA5
:1004B0003B501B6E010E1B5C02E1DD0E1A5C16E266
:1004C000446A456A0EEC02F0010E446E456A0EEC79
:1004D00002F08A9A8A88FA0E496E8EEC01F08A9AA6
:1004E0008A98FA0E496E8EEC01F0F3D7C2821200A0
:1004F000A0921A503C6E1B503D6EA0823C503E6E46
:100500003D503F6E120020B402D0266A2084A3AA78
:1005100038D0A4AA36D07450396EABA203D0AB98B1
:10052000AB881200266606D0A50E396203D0010EF4
:10053000266E27D0265225E0395203E0390411E017
:100540001FD078EC02F03E503A6E3F503B6E3B506D
:100550001E6E3A501F6E020E3C6E3C50256EA388F4
:100560000FD045EC02F042503A6E43503B6E3B5088
:100570001E6E3A501F6E020E3C6E3C50256EA388D4
:10058000266AA3A81200A4A81200000E2564120077
:1005900000EE1EF0E9503D6A255002083C6ED8A0DE
:1005A0003D063C50E9263D50EA22EF50736E250689
:1005B000D8B4A398120020B203D0236A246A208200
:1005C000232A1E0E236001D003D050EC02F0236AD0
:1005D000242A030E246001D033D0396A050E396015
:1005E0002CD000EE0CF0E95039503A6E3B6AD890AE
:1005F0003A363B363A50E9263B50EA22EE503C6E02
:10060000000E3C64EF6601D016D000EE0CF0E9500D
:1006100039503C6E3D6AD8903C363D363C50E92618
:100620003D50EA22EE503E6E3E52D8B4EF063E06F2
:10063000E9063E50EF6E392AD1D7246A86EC01F0E4
:10064000A1921200CD909EA037D0000E16641766BE
:1006500001D00CD0FF0E175C02E1FF0E165C06E223
:100660001750BF6E1650BE6E9D8401D09D941652D9
:1006700004E1175202E1829401D08284000E1864D2
:10068000196601D00CD0FF0E195C02E1FF0E185C58
:1006900006E21950686E1850676EA08001D0A090D5
:1006A000185204E1195202E1829201D08282630E53
:1006B000CF6EBF0ECE6E9E909DA404D09EA402D09D
:1006C00082949E94A0A004D0A1A002D08292A19076
:1006D000CD801200BA948A909E92120020B003D06E
:1006E000010E216E2080215204E0D58EF19A216AFC
:1006F00010D0D59EF18A010E216ED6501C6E1D6A57
:10070000376AD750386E37501C1238501D12D76ACE
:10071000D66AF0901200316A326A356A366A336AF4
:10072000100E3314346E34661200D89035363636D7
:100730002D362E36313632362F50315C3050326203
:10074000325C05E32F50315E3050325A3580332A07
:10075000E7D7050E2B6001D002D02F6A1200A092BD
:1007600000EE0CF0E9502B502D6E2E6AD8902D36ED
:100770002E362D50E9262E50EA22EE50306E3052A1
:1007800005E1EF5203E1010E2C6E01D02C6AA0822C
:100790002C502F6E1200050E2B601200A09200EE5E
:1007A0000CF0E9502B502E6E2F6AD8902E362F3633
:1007B0002E50E9262F50EA22E92A2C50306E2D5077
:1007C000EF6EE9063050EF6EA08212008A0E756E51
:1007D000766A080E706E938E938C900E716E240E56
:1007E000726ECF0EA516A38A1200B368B268330EDC
:1007F000B16EA292A08212000F015551226E040E1A
:10080000516F12000F013A953A9394949492829406
:1008100082920A0EBD6E666E496B9F94A290630E23
:10082000CF6EBF0ECE6E330ECD6E9F909D801200A8
:100830000F01399139938A9093909382030ED56E6C
:10084000D76AD66AF18AF08CF086140EBB6E9F923E
:100850009D821200276A286A296A2A6A2B6A280E52
:100860002C6E2D6ACBEC03F0140E496E8EEC01F069
:1008700045EC02F042502D6E43502E6E3A0E2F6E14
:10088000306A8BEC03F035502B6E36502C6E2B50AB
:10089000276E2C50286E140E2764286600D02B6A11
:1008A000A9EC03F02F5200E029520AE0290417E0D6
:1008B000020E296201D053D0030E2962D5D78ED003
:1008C000500E27642866D0D78A8A8A982B6A280E09
:1008D0002C6E2D6ACBEC03F0010E296EC5D7500E9D
:1008E0002764286622D08A8A8A981E0E2764286682
:1008F00001D00BD0446A010E456E0EEC02F0010EE1
:10090000446E456E0EEC02F009D0446A456A0EEC66
:1009100002F0010E446E456A0EEC02F02B6A280EBE
:100920002C6E2D6ACBEC03F09FD78A9A8A88446A92
:10093000456A0EEC02F0010E446E456A0EEC02F0C0
:100940002A5203E0020E296E02D0030E296E010E18
:100950002B6E0A0E2C6E2D6ACBEC03F085D7500E51
:100960002764286615D08A8A8A98446A456A0EECFC
:1009700002F0010E446E456A0EEC02F02B6A280E5E
:100980002C6E2D6ACBEC03F0010E2A6E296E6CD70B
:10099000010E2B6EA9EC03F02F5213E0446A456A56
:1009A0000EEC02F0010E446E456A0EEC02F0010EF0
:1009B0002B6E140E2C6E2D6ACBEC03F0030E296EF9
:1009C00053D78A9A8A88446A020E456E0EEC02F06A
:1009D000010E446E456E0EEC02F046D7500E2764B1
:1009E000286615D08A8A8A98446A456A0EEC02F015
:1009F000010E446E456A0EEC02F02B6A280E2C6E36
:100A00002D6ACBEC03F02A6A010E296E2DD7010E58
:100A10002B6EA9EC03F02F5213E0446A456A0EECEA
:100A200002F0010E446E456A0EEC02F0010E2B6ED0
:100A3000140E2C6E2D6ACBEC03F0020E296E14D727
:100A40008A9A8A88446A010E456E0EEC02F0010E05
:100A5000446E020E456E0EEC02F006D792800F0136
:100A60003881C16A860EC06E010EC26EC282C2B2E9
:100A7000FED7030EC414286E276AC35027122750CE
:100A80001A6E28501B6E1200E6EC03F02EEC05F0F7
:100A900018EC04F002EC04F0F5EC03F0939A939850
:100AA0008A9A8A98FCEC03F0D08EC00EF212446A47
:100AB000456A0EEC02F0010E446E456A0EEC02F03F
:100AC000780E496E8EEC01F08A8A8A982AEC04F03E
:100AD000FDD7D8CF05F0E0CF06F0EACF07F0E9CF99
:100AE00008F0F4CF09F0F3CF0AF00B6EA3AA03D0FD
:100AF000A4AA01D004D0A3A804D0A4A802D083EC57
:100B000002F022EC03F09EB26AEC03F0A0A204D043
:100B1000A1A202D0DBEC02F00B500AC0F3FF09C027
:100B2000F4FF08C0E9FF07C0EAFF06C0E0FF05C008
:100B3000D8FF10001A6A1B6A20901C6A1D6A166A88
:100B4000176A186A196A226A20920C6A0D6A209440
:100B50001E6A1F6A256A44EF05F0EACF01F0E9CF6B
:100B600002F0F4CF03F0F3CF04F0F0A604D0F0A02D
:100B700002D06EEC03F004C0F3FF03C0F4FF02C028
:080B8000E9FF01C0EAFF1100CA
:020000040030CA
:0E000000FF38E6FCFF75BBFFFFFFFFFFFFFFB1
:00000001FF
