:020000040000FA
:04030000EBEF03F02C
:08030800F2EF03F093909382E1
:100310000F01399139931200C7EF03F01752000013
:1003200001E11200FD0E00000000000000000000CE
:1003300000000000000000000000000000000000BD
:1003400000000000000000000000000000000000AD
:10035000000000000000000000000000000000009D
:10036000000000000000000000000000000000008D
:10037000000000000000000000000000000000007D
:10038000000000000000000000000000000000006D
:10039000000000000000000000000000FF0FD8A4D3
:1003A000C2D70000000000000000000000000000B4
:1003B000000000000000000000000000000000003D
:1003C000000000000000000000000000000000002D
:1003D000000000000000000000000000000000001D
:1003E000000000000000000000000000000000000D
:1003F00000000000000000000000000000000000FD
:1004000000000000000000000000000000000000EC
:10041000000000000000172E85D71200FA0E176E9C
:100420008EEC01F0FA0E176E8EEC01F0FA0E176EDC
:100430008EEC01F0FA0E176E8EEC01F0162EEED750
:1004400012001F50F86E1E50F76E1D50F66E940E7F
:10045000A66E550EA76EAA0EA76EA6821200F29A7D
:1004600010501D6E11501E6EF28A1D501F6E1E50D0
:10047000206E120014B004D0156A126A136A148038
:10048000A3AA43D0A4AA41D074501A6E156606D010
:10049000A50E1A6203D0010E156E37D0155235E045
:1004A0001A520AE01A0418E0020E1A6201D01ED095
:1004B000030E1A6229D023D02FEC02F01F501B6EBE
:1004C00020501C6E1C50126E1B50136E12501D6E6D
:1004D000A3881D50736E18D0230E126E450E136E36
:1004E00012501D6EA3881D50736E0ED0C00E1D6E6F
:1004F0001E681F6A206A21EC02F0FF00FFD7010E80
:100500001D6EA3981D50736E156AA3A81200A4A8AF
:100510001200A3981350736E1200CD909EA037D096
:10052000000E0C640D6601D00CD0FF0E0D5C02E1D4
:10053000FF0E0C5C06E20D50BF6E0C50BE6E9D842B
:1005400001D09D940C5204E10D5202E1829401D03D
:100550008284000E0E640F6601D00CD0FF0E0F5C7B
:1005600002E1FF0E0E5C06E20F50686E0E50676EE1
:10057000A08001D0A0900E5204E10F5202E18292BD
:1005800001D08282630ECF6EBF0ECE6E9E909DA470
:1005900004D09EA402D082949E94A0A004D0A1A0D6
:1005A00002D08292A190CD801200030EC4141B6E63
:1005B0001A6AC3501A121A50106E1B50116EC28262
:1005C000F29412008A0E756E766A080E706E938E23
:1005D000938C900E716E240E726ECF0EA516300E97
:1005E000A3121200CD90175206E0170414E0020E79
:1005F000176228D01CD000EE0CF0E9501650186E8F
:10060000D8901834E926E92A000E196EEF6AE90637
:100610001950EF6E17D0165205E18F0E0C6E6B0E4F
:100620000D6E10D05F0E0E6E730E0F6E0BD0165245
:1006300005E15F0E0C6E730E0D6E04D08F0E0E6E04
:100640006B0E0F6ECD801200949494920F013A9528
:100650003A93829482920A0EBD6E666E496B9F94A5
:10066000A290630ECF6EBF0ECE6E9F909D80330E14
:10067000CD6E120092800F013881C16A860EC06E65
:10068000010EC26EC282C2B2FED7030EC414176E30
:10069000166AC35016121650106E1750116E870E40
:1006A000D56EF194F294F28A1200400E9B6ED26ADB
:1006B000780ED36EE2EC02F03AEC03F086EC01F037
:1006C00024EC03F0D08EC00EF212939A93988A9A7B
:1006D0008A88166A010E176EF2EC02F0040E166E8E
:1006E0000EEC02F0166A176AF2EC02F0040E166EB7
:1006F0000EEC02F0166A020E176EF2EC02F0040E17
:10070000166E0EEC02F0166A176AF2EC02F0040E96
:10071000166E0EEC02F0010E166E176EF2EC02F081
:10072000040E166E0EEC02F0010E166E176AF2EC55
:1007300002F0040E166E0EEC02F0010E166E020EA2
:10074000176EF2EC02F0040E166E0EEC02F0010EC3
:10075000166E176AF2EC02F0040E166E0EEC02F042
:10076000166A81AA162A16B08A8A16A08A9A166A6A
:1007700081A8162A16B08A8816A08A98C80E176E05
:100780008EEC01F0C80E176E8EEC01F0E9D7D8CFD1
:1007900005F0E0CF06F0EACF07F0E9CF08F0F4CF9C
:1007A00009F0F3CF0AF00B6EA4AAA4B83AEC02F059
:1007B000F2B4D5EC02F08DEC02F00B500AC0F3FF5E
:1007C00009C0F4FF08C0E9FF07C0EAFF06C0E0FF68
:1007D00005C0D8FF1000106A116A14900C6A0D6AE7
:1007E00055EF03F0EACF01F0E9CF02F0F4CF03F0C8
:1007F000F3CF04F004C0F3FF03C0F4FF02C0E9FF2D
:0608000001C0EAFF110037
:020000040030CA
:0E000000FF38E6FCFF75BBFFFFFFFFFFFFFFB1
:00000001FF
