:020000040000FA
:04030000F1EF02F027
:08030800F6EF02F0A388175084
:04031000736E1200F6
:08031800CFEF02F013520000C8
:1003200001E11200FD0E00000000000000000000CE
:1003300000000000000000000000000000000000BD
:1003400000000000000000000000000000000000AD
:10035000000000000000000000000000000000009D
:10036000000000000000000000000000000000008D
:10037000000000000000000000000000000000007D
:10038000000000000000000000000000000000006D
:10039000000000000000000000000000FF0FD8A4D3
:1003A000C2D70000000000000000000000000000B4
:1003B000000000000000000000000000000000003D
:1003C000000000000000000000000000000000002D
:1003D000000000000000000000000000000000001D
:1003E000000000000000000000000000000000000D
:1003F00000000000000000000000000000000000FD
:1004000000000000000000000000000000000000EC
:10041000000000000000132E85D71200FA0E136EA4
:100420008EEC01F0FA0E136E8EEC01F0FA0E136EE4
:100430008EEC01F0FA0E136E8EEC01F0122EEED758
:100440001200F29A0C50176E0D50186EF28A175067
:10045000196E18501A6E120010B004D0116A0E6A8C
:100460000F6A1080A3AA38D0A4AA36D07450146E94
:10047000116606D0A50E146203D0010E116E2CD0A9
:1004800011522AE014520AE0140417E0020E14621A
:1004900001D01CD0030E14621ED018D021EC02F043
:1004A0001950156E1A50166E16500E6E15500F6EAE
:1004B0000E50176E86EC01F00ED0230E0E6E450E18
:1004C0000F6E0E50176E86EC01F005D0A398010E4A
:1004D000176E86EC01F0116AA3A81200A4A81200FE
:1004E000A3980F50736E1200030EC414156E146A95
:1004F000C350141214500C6E15500D6EC282F2943B
:1005000012008A0E756E766A080E706E938E938C4A
:10051000900E716E240E726ECF0EA516300EA312C1
:10052000120092800F013881C16A860EC06E010EE2
:10053000C26EC282C2B2FED7030EC414136E126A18
:10054000C350121212500C6E13500D6E870ED56EE2
:10055000F194F294F28A1200400E9B6ED26A780EE9
:10056000D36E81EC02F091EC02F0D08EC00EF2124C
:10057000939A93988A9A8A88126A81AA122A12B048
:100580008A8A12A08A9A126A81A8122A12B08A88CC
:1005900012A08A98010E126E0EEC02F0EDD7D8CFA1
:1005A00005F0E0CF06F0EACF07F0E9CF08F0F4CF8E
:1005B00009F0F3CF0AF00B6EA4AAA4B82CEC02F059
:1005C000F2B474EC02F00B500AC0F3FF09C0F4FF60
:1005D00008C0E9FF07C0EAFF06C0E0FF05C0D8FF7A
:1005E00010000C6A0D6A1090ACEF02F0EACF01F037
:1005F000E9CF02F0F4CF03F0F3CF04F004C0F3FF2F
:0E06000003C0F4FF02C0E9FF01C0EAFF1100D1
:020000040030CA
:0E000000FF38E6FCFF75BBFFFFFFFFFFFFFFB1
:00000001FF
