:020000040000FA
:0403000017EF06F0FD
:080308002BEF06F0BA948A9075
:040310009E921200A7
:08031800E6EF05F0465200007B
:1003200001E11200FD0E00000000000000000000CE
:1003300000000000000000000000000000000000BD
:1003400000000000000000000000000000000000AD
:10035000000000000000000000000000000000009D
:10036000000000000000000000000000000000008D
:10037000000000000000000000000000000000007D
:10038000000000000000000000000000000000006D
:10039000000000000000000000000000FF0FD8A4D3
:1003A000C2D70000000000000000000000000000B4
:1003B000000000000000000000000000000000003D
:1003C000000000000000000000000000000000002D
:1003D000000000000000000000000000000000001D
:1003E000000000000000000000000000000000000D
:1003F00000000000000000000000000000000000FD
:1004000000000000000000000000000000000000EC
:10041000000000000000462E85D71200FA0E466E3E
:100420008EEC01F0FA0E466E8EEC01F0FA0E466E7E
:100430008EEC01F0FA0E466E8EEC01F0312EEED706
:100440001200CD90425206E0420419E0020E4262D0
:100450002DD021D000EE16F0E9504150436E446A91
:10046000D890433644364350E9264450EA22E92ADC
:10047000000E456EEF6AE9064550EF6E17D0415207
:1004800005E18F0E166E6B0E176E10D05F0E186E94
:10049000730E196E0BD0415205E15F0E166E730E8E
:1004A000176E04D08F0E186E6B0E196ECD80120071
:1004B000F0961C503D6E1D503E6EF0863D503F6ED6
:1004C0003E50406E1200030EC4143C6E3B6AC35093
:1004D0003B123B501A6E3C501B6E010E1B5C02E13E
:1004E000DD0E1A5C16E2416A426A21EC02F0010E4E
:1004F000416E426A21EC02F08A9A8A88FA0E466EB0
:100500008EEC01F08A9A8A98FA0E466E8EEC01F013
:10051000F3D7C2821200A0921A503D6E1B503E6E5D
:10052000A0823D503F6E3E50406E120021B402D07A
:10053000276A2184A3AA38D0A4AA36D074503A6E70
:10054000ABA203D0AB98AB881200276606D0A50EED
:100550003A6203D0010E276E27D0275225E03A5287
:1005600003E03A0411E01FD08BEC02F03F503B6EE9
:1005700040503C6E3C501E6E3B501F6E020E3D6E56
:100580003D50266EA3880FD058EC02F03F503B6ED2
:1005900040503C6E3C501E6E3B501F6E020E3D6E36
:1005A0003D50266EA388276AA3A81200A4A81200B3
:1005B000000E2664120000EE1EF0E9503E6A26503E
:1005C00002083D6ED8A03E063D50E9263E50EA2284
:1005D000EF50736E2606D8B4A398120021B203D050
:1005E000246A256A2182242A1E0E246001D003D0A9
:1005F00063EC02F0246A252A030E256001D031D075
:100600003A6A050E3A602CD000EE0CF0E9503A50F0
:100610003B6E3C6AD8903B363C363B50E9263C501A
:10062000EA22EE503D6E000E3D64EF6601D016D01A
:1006300000EE0CF0E9503A503D6E3E6AD8903D36DF
:100640003E363D50E9263E50EA22EE503F6E3F5284
:10065000D8B4EF063F06E9063F50EF6E3A2AD1D7ED
:10066000256AA1921200CD909EA037D0000E16648C
:10067000176601D00CD0FF0E175C02E1FF0E165C6E
:1006800006E21750BF6E1650BE6E9D8401D09D9439
:10069000165204E1175202E1829401D08284000EC6
:1006A0001864196601D00CD0FF0E195C02E1FF0E30
:1006B000185C06E21950686E1850676EA08001D071
:1006C000A090185204E1195202E1829201D0828274
:1006D000630ECF6EBF0ECE6E9E909DA404D09EA4DE
:1006E00002D082949E94A0A004D0A1A002D08292B5
:1006F000A190CD80120021B003D0010E226E218086
:10070000225204E0D58EF19A226A12D0D59EF18A47
:10071000010E226ED6501C6E1D6A386AD750396E93
:1007200038501C1239501D12D76AD66A010E206E3D
:10073000F0901200346A316A326A080E3214336E55
:1007400033661200D89031362E36343634502F644A
:1007500001D003D02F50345E3180322AEED723509F
:10076000316E336AD89031363336326A23503126AF
:1007700033503222070E315E0F0153513118236E70
:100780002350316E12008A80BC6A060EBA6E206653
:1007900001D0FDD7206A1C50366E1D50376E1200F6
:1007A000050E2D6001D002D0316A1200A09200EE39
:1007B0000CF0E9502D502F6E306AD8902F3630361D
:1007C0002F50E9263050EA22EE50326E325205E1C7
:1007D000EF5203E1010E2E6E01D02E6AA0822E5040
:1007E000316E1200050E2F601200A09200EE0CF088
:1007F000E9502F50326E336AD89032363336325049
:10080000E9263350EA22E92A3050346E3150EF6E37
:10081000E9063450EF6EA08212002D520BE0416ABF
:10082000020E426E21EC02F0010E416E426E21EC8E
:1008300002F00BD0416A010E426E21EC02F0010E73
:10084000416E020E426E21EC02F0AFEC03F031502B
:100850002E6E040E2F6E9AEC03F03450306E305230
:1008600006E030040DE0020E30621CD00ED0FA0E0D
:10087000466E8EEC01F0FA0E466E8EEC01F0120020
:10088000010E316E0EEC02F01200010E316E0EEC14
:1008900002F0FA0E466E8EEC01F0FA0E466E8EEC09
:1008A00001F01200020E316E0EEC02F01200AFECFD
:1008B00003F0800E316002D02E6A1200010E2E6EFF
:1008C00012002D6A2E6A2F6A306A316A040E316076
:1008D00012D0C3EC03F03650326E3750336E346AA8
:1008E000356A32502D2633502E2234502F22355067
:1008F0003022312AEBD7D89030322F322E322D329F
:10090000D89030322F322E322D322D50326E2E5062
:10091000336E12008A0E756E766A080E706E938EB4
:10092000938C900E716E240E726ECF0EA516A38A54
:100930001200B368B268330EB16EA292A0821200A8
:100940000F015551236E040E516F12000F013A959D
:100950003A9394949492829482920A0EBD6E666E3B
:10096000496B9F94A290630ECF6EBF0ECE6E330E76
:10097000CD6E9F909D8012000F01399139938A901E
:1009800093909382030ED56ED76AD66AF18AF08C63
:10099000F086140EBB6E9F929D821200100E2B6E7D
:1009A000090E2C6E416A010E426E21EC02F0010E1E
:1009B000416E426E21EC02F0010E2F6E320E306E4F
:1009C000316AF2EC03F0020E2F6EC80E306E316AFF
:1009D000F2EC03F061EC04F03250296E33502A6ED1
:1009E000030E2A5C02E1660E295C53E28A9A8A8829
:1009F000416A426A21EC02F0010E416E426A21EC2A
:100A000002F0FA0E466E8EEC01F0FA0E466E8EEC97
:100A100001F0416A020E426E21EC02F0010E416EBD
:100A2000020E426E21EC02F0030E316E0EEC02F06B
:100A300057EC04F02E520CE0416A010E426E21EC9C
:100A400002F0010E416E020E426E21EC02F00AD05D
:100A5000416A020E426E21EC02F0010E416E426EBE
:100A600021EC02F0010E316E0EEC02F0100E2B6E36
:100A7000090E2C6E010E2F6E320E306E316AF2ECC2
:100A800003F0020E2F6EC80E306E316AF2EC03F0E6
:100A900043D02C502A5C02E12B50295C1DE28A9A3B
:100AA0008A882D6AD0EC03F031520AE057EC04F04A
:100AB0002E50286E2F6A3C0E306E316AF2EC03F035
:100AC00028502D6E0DEC04F0020E2F6EC80E306E05
:100AD000316AF2EC03F020D08A8A8A98020E2D6ED9
:100AE000D0EC03F031520EE057EC04F02E502D6E96
:100AF0000DEC04F0020E2F6EC80E306E316AF2EC6F
:100B000003F00AD0416A010E426E21EC02F0010EA0
:100B1000416E426E21EC02F0010E2D6ED0EC03F01E
:100B20003152D8B457D73A0E2B02F3502D6EF450F1
:100B30002E6E3A0E2C02F3502E262E50040802E19F
:100B40002D50880804E2740E2B5ED8A02C06010EEE
:100B50002F6E320E306E316AF2EC03F03BD792808A
:100B60000F013881C16A860EC06E010EC26EC2824C
:100B7000C2B2FED7030EC414296E286AC3502812CD
:100B800028501A6E29501B6E12008AEC04F0AFEC4C
:100B900005F0BCEC04F0A6EC04F099EC04F0939A98
:100BA00093988A9A8A98A0EC04F0D08EC00EF21224
:100BB000416A426A21EC02F0010E416E426A21EC68
:100BC00002F08A8A8A98CEEC04F0FDD7D8CF05F0DF
:100BD000E0CF06F0EACF07F0E9CF08F0F4CF09F054
:100BE000F3CF0AF00B6EA3AA03D0A4AA01D004D0BD
:100BF000A3A804D0A4A802D096EC02F033EC03F032
:100C00009EB286EC01F0A0A204D0A1A202D0EEEC2C
:100C100002F00B500AC0F3FF09C0F4FF08C0E9FF5F
:100C200007C0EAFF06C0E0FF05C0D8FF10001A6A3F
:100C30001B6A21901C6A1D6A206A166A176A186A64
:100C4000196A236A21920C6A0D6A21941E6A1F6A2E
:100C5000266AC5EF05F0EACF01F0E9CF02F0F4CF44
:100C600003F0F3CF04F0F0A604D0F0A002D07BECA8
:100C700003F004C0F3FF03C0F4FF02C0E9FF01C0AA
:040C8000EAFF110076
:020000040030CA
:0E000000FF38E6FCFF75BBFFFFFFFFFFFFFFB1
:00000001FF
