:020000040000FA
:040300009FEF04F077
:08030800B0EF04F0BA948A90F2
:040310009E921200A7
:080318006EEF04F03752000003
:1003200001E11200FD0E00000000000000000000CE
:1003300000000000000000000000000000000000BD
:1003400000000000000000000000000000000000AD
:10035000000000000000000000000000000000009D
:10036000000000000000000000000000000000008D
:10037000000000000000000000000000000000007D
:10038000000000000000000000000000000000006D
:10039000000000000000000000000000FF0FD8A4D3
:1003A000C2D70000000000000000000000000000B4
:1003B000000000000000000000000000000000003D
:1003C000000000000000000000000000000000002D
:1003D000000000000000000000000000000000001D
:1003E000000000000000000000000000000000000D
:1003F00000000000000000000000000000000000FD
:1004000000000000000000000000000000000000EC
:10041000000000000000372E85D71200FA0E376E5C
:100420008EEC01F0FA0E376E8EEC01F0FA0E376E9C
:100430008EEC01F0FA0E376E8EEC01F01E2EEED728
:100440001200CD90335206E0330419E0020E3362FD
:100450002DD021D000EE0CF0E9503250346E356AC8
:10046000D890343635363450E9263550EA22E92A18
:10047000000E366EEF6AE9063650EF6E17D0325234
:1004800005E18F0E0C6E6B0E0D6E10D05F0E0E6EB2
:10049000730E0F6E0BD0325205E15F0E0C6E730EB1
:1004A0000D6E04D08F0E0E6E6B0E0F6ECD8012008F
:1004B000F09612502E6E13502F6EF0862E50306E26
:1004C0002F50316E1200030EC4142C6E2B6AC350D1
:1004D0002B122B50106E2C50116E010E115C02E18C
:1004E000DD0E105C16E2326A336A21EC02F0010E76
:1004F000326E336A21EC02F08A9A8A88FA0E376EDD
:100500008EEC01F08A9A8A98FA0E376E8EEC01F022
:10051000F3D7C2821200A09210502E6E11502F6E8F
:10052000A0822E50306E2F50316E120017B402D0C0
:100530001B6A1784A3AA38D0A4AA36D074502B6E95
:10054000ABA203D0AB98AB8812001B6606D0A50EF9
:100550002B6203D0010E1B6E27D01B5225E02B52BD
:1005600003E02B0411E01FD08BEC02F030502C6E16
:1005700031502D6E2D50146E2C50156E020E2E6EB5
:100580002E501A6EA3880FD058EC02F030502C6E0B
:1005900031502D6E2D50146E2C50156E020E2E6E95
:1005A0002E501A6EA3881B6AA3A81200A4A81200DA
:1005B000000E1A64120000EE14F0E9502F6A1A506F
:1005C00002082E6ED8A02F062E50E9262F50EA22C0
:1005D000EF50736E1A06D8B4A398120017B202D067
:1005E000196A1782192A1E0E196001D003D063EC14
:1005F00002F0196AA1921200CD909EA037D0000E91
:100600000C640D6601D00CD0FF0E0D5C02E1FF0EF4
:100610000C5C06E20D50BF6E0C50BE6E9D8401D086
:100620009D940C5204E10D5202E1829401D0828427
:10063000000E0E640F6601D00CD0FF0E0F5C02E1BD
:10064000FF0E0E5C06E20F50686E0E50676EA080C3
:1006500001D0A0900E5204E10F5202E1829201D02B
:100660008282630ECF6EBF0ECE6E9E909DA404D08C
:100670009EA402D082949E94A0A004D0A1A002D0F7
:100680008292A190CD80120017B003D0010E186E97
:100690001780185204E0D58EF19A186A12D0D59EB0
:1006A000F18A010E186ED650126E136A296AD7505D
:1006B0002A6E295012122A501312D76AD66A010ED6
:1006C000166EF09012008A80BC6A060EBA6E16662C
:1006D00001D0FDD7166A1250276E1350286E1200F3
:1006E0008A0E756E766A080E706E938E938C900EDD
:1006F000716E240E726ECF0EA516A38A1200B36817
:10070000B268330EB16EA292A08212000F013A9528
:100710003A9394949492829482920A0EBD6E666E7D
:10072000496B9F94A290630ECF6EBF0ECE6E330EB8
:10073000CD6E9F909D8012000F01399139938A9060
:1007400093909382030ED56ED76AD66AF18AF08CA5
:10075000F086140EBB6E9F929D821200326A010ECB
:10076000336E21EC02F0010E326E336E21EC02F09A
:100770001E6A1F6A206A216A226A040E226012D051
:1007800063EC03F02750236E2850246E256A266AF6
:1007900023501E2624501F2225502022265021227D
:1007A000222AEBD7D890213220321F321E32D89025
:1007B000213220321F321E321E501C6E1F501D6E01
:1007C000030E1D5C02E1660E1C5C2EE28A9A8A888A
:1007D000326A336A21EC02F0010E326E336A21EC88
:1007E00002F0010E1E6E0EEC02F0326A020E336E43
:1007F00021EC02F0010E326E020E336E21EC02F09B
:10080000030E1E6E0EEC02F0326A010E336E21EC06
:1008100002F0010E326E020E336E21EC02F0010E78
:100820001E6E0EEC02F0A4D7090E1D5C02E1100E44
:100830001C5C12E28A9A8A88326A010E336E21ECBD
:1008400002F0010E326E020E336E21EC02F0010E48
:100850001E6E0EEC02F08CD78A8A8A98326A010EDC
:10086000336E21EC02F0010E326E336E21EC02F099
:100870007FD792800F013881C16A860EC06E010E4B
:10088000C26EC282C2B2FED7030EC4141D6E1C6AB1
:10089000C3501C121C50106E1D50116E120070ECD3
:1008A00003F039EC04F09CEC03F086EC03F07FECF1
:1008B00003F0939A93988A9A8A98D08EC00EF21277
:1008C000326A336A21EC02F0010E326E336A21EC97
:1008D00002F08A8A8A98AEEC03F0FDD7D8CF05F0F3
:1008E000E0CF06F0EACF07F0E9CF08F0F4CF09F047
:1008F000F3CF0AF00B6EA3AA03D0A4AA01D004D0B0
:10090000A3A804D0A4A802D096EC02F0FCEC02F05C
:100910009EB286EC01F0A0A204D0A1A202D0EEEC1F
:1009200002F00B500AC0F3FF09C0F4FF08C0E9FF52
:1009300007C0EAFF06C0E0FF05C0D8FF1000106A3C
:10094000116A1790126A136A166A0C6A0D6A0E6AA7
:100950000F6A17921794146A156A1A6A4FEF04F017
:10096000EACF01F0E9CF02F0F4CF03F0F3CF04F0C7
:10097000F0A604D0F0A002D044EC03F004C0F3FFD2
:0E09800003C0F4FF02C0E9FF01C0EAFF11004E
:020000040030CA
:0E000000FF38E6FCFF75BBFFFFFFFFFFFFFFB1
:00000001FF
