:020000040000FA
:04030000CEEF05F047
:08030800E1EF05F08A80BC6AF8
:06031000060EBA6E120099
:080318009DEF05F049520000C1
:1003200001E11200FD0E00000000000000000000CE
:1003300000000000000000000000000000000000BD
:1003400000000000000000000000000000000000AD
:10035000000000000000000000000000000000009D
:10036000000000000000000000000000000000008D
:10037000000000000000000000000000000000007D
:10038000000000000000000000000000000000006D
:10039000000000000000000000000000FF0FD8A4D3
:1003A000C2D70000000000000000000000000000B4
:1003B000000000000000000000000000000000003D
:1003C000000000000000000000000000000000002D
:1003D000000000000000000000000000000000001D
:1003E000000000000000000000000000000000000D
:1003F00000000000000000000000000000000000FD
:1004000000000000000000000000000000000000EC
:10041000000000000000492E85D71200FA0E496E38
:100420008EEC01F0FA0E496E8EEC01F0FA0E496E78
:100430008EEC01F0FA0E496E8EEC01F02B2EEED709
:100440001200CD90455206E0450419E0020E4562C7
:100450002DD021D000EE16F0E9504450466E476A88
:10046000D890463647364650E9264750EA22E92AD0
:10047000000E486EEF6AE9064850EF6E17D04452FE
:1004800005E18F0E166E6B0E176E10D05F0E186E94
:10049000730E196E0BD0445205E15F0E166E730E8B
:1004A000176E04D08F0E186E6B0E196ECD80120071
:1004B000F0961C50406E1D50416EF0864050426ECA
:1004C0004150436E1200030EC4143B6E3A6AC3508F
:1004D0003A123A501A6E3B501B6E010E1B5C02E141
:1004E000DD0E1A5C16E2446A456A21EC02F0010E48
:1004F000446E456A21EC02F08A9A8A88FA0E496EA7
:100500008EEC01F08A9A8A98FA0E496E8EEC01F010
:10051000F3D7C2821200A0921A503C6E1B503D6E5F
:10052000A0823C503E6E3D503F6E120020B402D07F
:10053000266A2084A3AA38D0A4AA36D07450396E73
:10054000ABA203D0AB98AB881200266606D0A50EEE
:10055000396203D0010E266E27D0265225E039528B
:1005600003E0390411E01FD08BEC02F03E503A6EEC
:100570003F503B6E3B501E6E3A501F6E020E3C6E5B
:100580003C50256EA3880FD058EC02F042503A6ED2
:1005900043503B6E3B501E6E3A501F6E020E3C6E37
:1005A0003C50256EA388266AA3A81200A4A81200B6
:1005B000000E2564120000EE1EF0E9503D6A255041
:1005C00002083C6ED8A03D063C50E9263D50EA2288
:1005D000EF50736E2506D8B4A398120020B203D052
:1005E000236A246A2082232A1E0E236001D003D0AE
:1005F00063EC02F0236A242A030E246001D033D076
:10060000396A050E39602CD000EE0CF0E9503950F3
:100610003A6E3B6AD8903A363B363A50E9263B5020
:10062000EA22EE503C6E000E3C64EF6601D016D01C
:1006300000EE0CF0E95039503C6E3D6AD8903C36E3
:100640003D363C50E9263D50EA22EE503E6E3E5289
:10065000D8B4EF063E06E9063E50EF6E392AD1D7F0
:10066000246A86EC01F0A1921200CD909EA037D0B2
:10067000000E1664176601D00CD0FF0E175C02E165
:10068000FF0E165C06E21750BF6E1650BE6E9D84BC
:1006900001D09D94165204E1175202E1829401D0D8
:1006A0008284000E1864196601D00CD0FF0E195C0C
:1006B00002E1FF0E185C06E21950686E1850676E72
:1006C000A08001D0A090185204E1195202E1829258
:1006D00001D08282630ECF6EBF0ECE6E9E909DA41F
:1006E00004D09EA402D082949E94A0A004D0A1A085
:1006F00002D08292A190CD801200BA948A909E92EC
:10070000120020B003D0010E216E2080215204E09F
:10071000D58EF19A216A10D0D59EF18A010E216EF4
:10072000D6501C6E1D6A376AD750386E37501C126F
:1007300038501D12D76AD66AF0901200316A326AB8
:10074000356A366A336A100E3314346E346612001A
:10075000D890353636362D362E36313632362F5045
:10076000315C30503262325C05E32F50315E3050E4
:10077000325A3580332AE7D7050E2B6001D002D0DC
:100780002F6A1200A09200EE0CF0E9502B502D6E53
:100790002E6AD8902D362E362D50E9262E50EA227C
:1007A000EE50306E305205E1EF5203E1010E2C6E37
:1007B00001D02C6AA0822C502F6E1200050E2B60E7
:1007C0001200A09200EE0CF0E9502B502E6E2F6A12
:1007D000D8902E362F362E50E9262F50EA22E92ABD
:1007E0002C50306E2D50EF6EE9063050EF6EA08227
:1007F00012008A0E756E766A080E706E938E938C58
:10080000900E716E240E726ECF0EA516A38A120082
:10081000B368B268330EB16EA292A08212000F01CB
:100820005551226E040E516F12000F013A953A9302
:1008300094949492829482920A0EBD6E666E496B75
:100840009F94A290630ECF6EBF0ECE6E330ECD6E10
:100850009F909D8012000F01399139938A90939057
:100860009382030ED56ED76AD66AF18AF08CF08631
:10087000140EBB6E9F929D821200276A286A296A15
:100880002A6A140E496E8EEC01F058EC02F04250C8
:100890002D6E43502E6E3A0E2F6E306A9EEC03F092
:1008A00035502B6E36502C6E2B50276E2C50286EE8
:1008B000140E2764286626D08A9A8A88446A020E13
:1008C000456E21EC02F0010E446E020E456E21ECE5
:1008D00002F0030E2B6E0EEC02F0010E446E456E1C
:1008E00021EC02F0020E2B6E0EEC02F0446A456A17
:1008F00021EC02F0010E446E456A21EC02F08A9A66
:100900008A98120029520AE029041DE0020E296289
:1009100001D059D0030E2962B4D794D02B6A640E4B
:100920002C6E2D6ADEEC03F0500E27642866A9D7E2
:100930008A8A8A982B6A640E2C6E2D6ADEEC03F08C
:10094000010E296E9ED7500E2764286622D08A8A0F
:100950008A981E0E2764286601D00BD0446A010EC7
:10096000456E21EC02F0010E446E456E21EC02F062
:1009700009D0446A456A21EC02F0010E446E456AD2
:1009800021EC02F02B6A640E2C6E2D6ADEEC03F073
:1009900078D78A9A8A88446A456A21EC02F0010E67
:1009A000446E456A21EC02F02A5203E0020E296EE1
:1009B00002D0030E296E010E2B6E0A0E2C6E2D6ACC
:1009C000DEEC03F05ED7500E2764286615D08A8AC5
:1009D0008A98446A456A21EC02F0010E446E456A29
:1009E00021EC02F02B6A640E2C6E2D6ADEEC03F013
:1009F000010E2A6E296E45D7010E2B6EBCEC03F05A
:100A00002F5213E0446A456A21EC02F0010E446E55
:100A1000456A21EC02F0010E2B6E140E2C6E2D6A2D
:100A2000DEEC03F0030E296E2CD78A9A8A88446A7A
:100A3000020E456E21EC02F0010E446E456E21EC73
:100A400002F01FD7500E2764286615D08A8A8A982C
:100A5000446A456A21EC02F0010E446E456A21ECBD
:100A600002F02B6A640E2C6E2D6ADEEC03F02A6A0B
:100A7000010E296E06D7010E2B6EBCEC03F02F522F
:100A800013E0446A456A21EC02F0010E446E456AA7
:100A900021EC02F0010E2B6E140E2C6E2D6ADEEC92
:100AA00003F0020E296EEDD68A9A8A88446A010EF6
:100AB000456E21EC02F0010E446E020E456E21ECF3
:100AC00002F0DFD692800F013881C16A860EC06EB7
:100AD000010EC26EC282C2B2FED7030EC414286ECB
:100AE000276AC350271227501A6E28501B6E120017
:100AF000F9EC03F062EC05F02BEC04F015EC04F0DB
:100B000008EC04F0939A93988A9A8A980FEC04F070
:100B1000D08EC00EF212446A456A21EC02F0010E3A
:100B2000446E456A21EC02F0780E496E8EEC01F0BD
:100B30008A8A8A983DEC04F0FDD7D8CF05F0E0CF43
:100B400006F0EACF07F0E9CF08F0F4CF09F0F3CFD1
:100B50000AF00B6EA3AA03D0A4AA01D004D0A3A8C4
:100B600004D0A4A802D096EC02F035EC03F09EB2BB
:100B70007DEC03F0A0A204D0A1A202D0EEEC02F022
:100B80000B500AC0F3FF09C0F4FF08C0E9FF07C01B
:100B9000EAFF06C0E0FF05C0D8FF10001A6A1B6A12
:100BA00020901C6A1D6A166A176A186A196A226AF6
:100BB00020920C6A0D6A20941E6A1F6A256A78EFDB
:100BC00005F0EACF01F0E9CF02F0F4CF03F0F3CF64
:100BD00004F0F0A604D0F0A002D081EC03F004C031
:100BE000F3FF03C0F4FF02C0E9FF01C0EAFF1100F8
:020000040030CA
:0E000000FF38E6FCFF75BBFFFFFFFFFFFFFFB1
:00000001FF
