:020000040000FA
:0400000086EF00F097
:0800080089EF00F0A3881150FC
:10001000736E8A9A8A88120067EF00F00EB004D0DF
:100020000F6A0C6A0D6A0E80A3AA28D0A4AA26D053
:100030007450106E0F6606D0A50E106203D0010E2C
:100040000F6E1CD00F521AE0105206E010040DE0A3
:10005000020E106212D011D0AB0E0C6ECD0E0D6ED2
:100060000C50116E06EC00F008D0230E0C6E450EFD
:100070000D6E0C50116E06EC00F00F6AA3A8120072
:10008000A4A81200A3980D50736E8A8A8A98120051
:100090008A0E756E766A080E706E938E938C900E33
:1000A000716E240E726E300EA312CF0EA5161200C2
:1000B000400E9B6ED26A780ED36E48EC00F0D08E64
:1000C000C00EF26E939A93988A9A8A88FFD7D8CFF7
:1000D00005F0E0CF06F0EACF07F0E9CF08F0F4CF63
:1000E00009F0F3CF0AF00B6EA4AAA4B80EEC00F04E
:1000F0000B500AC0F3FF09C0F4FF08C0E9FF07C0B6
:10010000EAFF06C0E0FF05C0D8FF10000E9058EFD0
:1001100000F0EACF01F0E9CF02F0F4CF03F0F3CF23
:1001200004F004C0F3FF03C0F4FF02C0E9FF01C004
:04013000EAFF1100D1
:020000040030CA
:0E000000FF38E6FCFF75BBFFFFFFFFFFFFFFB1
:00000001FF
