:020000040000FA
:04030000E9EF05F02C
:08030800FCEF05F08A80BC6ADD
:06031000060EBA6E120099
:08031800B8EF05F046520000A9
:1003200001E11200FD0E00000000000000000000CE
:1003300000000000000000000000000000000000BD
:1003400000000000000000000000000000000000AD
:10035000000000000000000000000000000000009D
:10036000000000000000000000000000000000008D
:10037000000000000000000000000000000000007D
:10038000000000000000000000000000000000006D
:10039000000000000000000000000000FF0FD8A4D3
:1003A000C2D70000000000000000000000000000B4
:1003B000000000000000000000000000000000003D
:1003C000000000000000000000000000000000002D
:1003D000000000000000000000000000000000001D
:1003E000000000000000000000000000000000000D
:1003F00000000000000000000000000000000000FD
:1004000000000000000000000000000000000000EC
:10041000000000000000462E85D71200FA0E466E3E
:100420008EEC01F0FA0E466E8EEC01F0FA0E466E7E
:100430008EEC01F0FA0E466E8EEC01F0302EEED707
:100440001200CD90425206E0420419E0020E4262D0
:100450002DD021D000EE16F0E9504150436E446A91
:10046000D890433644364350E9264450EA22E92ADC
:10047000000E456EEF6AE9064550EF6E17D0415207
:1004800005E18F0E166E6B0E176E10D05F0E186E94
:10049000730E196E0BD0415205E15F0E166E730E8E
:1004A000176E04D08F0E186E6B0E196ECD80120071
:1004B000F0961C503D6E1D503E6EF0863D503F6ED6
:1004C0003E50406E1200030EC414386E376AC3509B
:1004D000371237501A6E38501B6E010E1B5C02E14A
:1004E000DD0E1A5C16E2416A426A21EC02F0010E4E
:1004F000416E426A21EC02F08A9A8A88FA0E466EB0
:100500008EEC01F08A9A8A98FA0E466E8EEC01F013
:10051000F3D7C2821200A0921A50396E1B503A6E65
:10052000A08239503B6E3A503C6E120020B402D08B
:10053000266A2084A3AA38D0A4AA36D07450366E76
:10054000ABA203D0AB98AB881200266606D0A50EEE
:10055000366203D0010E266E27D0265225E0365291
:1005600003E0360411E01FD08BEC02F03B50376EF5
:100570003C50386E38501E6E37501F6E020E396E6A
:100580003950256EA3880FD058EC02F03F50376EDB
:100590004050386E38501E6E37501F6E020E396E46
:1005A0003950256EA388266AA3A81200A4A81200B9
:1005B000000E2564120000EE1EF0E9503A6A255044
:1005C0000208396ED8A03A063950E9263A50EA2294
:1005D000EF50736E2506D8B4A398120020B203D052
:1005E000236A246A2082232A1E0E236001D003D0AE
:1005F00063EC02F0236A242A030E246001D033D076
:10060000366A050E36602CD000EE0CF0E9503650FC
:10061000376E386AD890373638363750E926385032
:10062000EA22EE50396E000E3964EF6601D016D022
:1006300000EE0CF0E9503650396E3A6AD8903936EF
:100640003A363950E9263A50EA22EE503B6E3B5298
:10065000D8B4EF063B06E9063B50EF6E362AD1D7F9
:10066000246A86EC01F0A1921200CD909EA037D0B2
:10067000000E1664176601D00CD0FF0E175C02E165
:10068000FF0E165C06E21750BF6E1650BE6E9D84BC
:1006900001D09D94165204E1175202E1829401D0D8
:1006A0008284000E1864196601D00CD0FF0E195C0C
:1006B00002E1FF0E185C06E21950686E1850676E72
:1006C000A08001D0A090185204E1195202E1829258
:1006D00001D08282630ECF6EBF0ECE6E9E909DA41F
:1006E00004D09EA402D082949E94A0A004D0A1A085
:1006F00002D08292A190CD801200BA948A909E92EC
:10070000120020B003D0010E216E2080215204E09F
:10071000D58EF19A216A10D0D59EF18A010E216EF4
:10072000D6501C6E1D6A346AD750356E34501C1278
:1007300035501D12D76AD66AF0901200336A306ABB
:10074000316A080E3114326E32661200D89030369B
:100750002D36333633502E6401D003D02E50335E05
:100760003080312AEED72250306E326AD89030363F
:100770003236316A2250302632503122070E305E36
:100780000F0153513018226E2250306E1200050EA8
:100790002C6001D002D0306A1200A09200EE0CF062
:1007A000E9502C502E6E2F6AD8902E362F362E50B0
:1007B000E9262F50EA22EE50316E315205E1EF5218
:1007C00003E1010E2D6E01D02D6AA0822D50306EF6
:1007D0001200050E2E601200A09200EE0CF0E950FF
:1007E0002E50316E326AD890313632363150E92689
:1007F0003250EA22E92A2F50336E3050EF6EE9066C
:100800003350EF6EA08212002C520BE0416A020EB0
:10081000426E21EC02F0010E416E426E21EC02F0BC
:100820000BD0416A010E426E21EC02F0010E416EC6
:10083000020E426E21EC02F0B3EC03F030502D6E4C
:10084000040E2E6E9EEC03F033502F6E2F5206E0F6
:100850002F040DE0020E2F621CD00ED0FA0E466E51
:100860008EEC01F0FA0E466E8EEC01F01200010ED5
:10087000306E0EEC02F01200010E306E0EEC02F043
:10088000FA0E466E8EEC01F0FA0E466E8EEC01F01A
:100890001200020E306E0EEC02F01200B3EC03F008
:1008A000800E306002D02D6A1200010E2D6E1200F3
:1008B0008A0E756E766A080E706E938E938C900E0B
:1008C000716E240E726ECF0EA516A38A1200B36845
:1008D000B268330EB16EA292A08212000F01555180
:1008E000226E040E516F12000F013A953A939494C0
:1008F0009492829482920A0EBD6E666E496B9F94AA
:10090000A290630ECF6EBF0ECE6E330ECD6E9F9053
:100910009D8012000F01399139938A9093909382B0
:10092000030ED56ED76AD66AF18AF08CF086140E63
:10093000BB6E9F929D821200100E2A6E090E2B6EC6
:10094000416A010E426E21EC02F0010E416E426ED0
:1009500021EC02F0010E2E6E320E2F6E306AE9ECA1
:1009600003F0020E2E6EC80E2F6E306AE9EC03F013
:10097000140E466E8EEC01F058EC02F03F50286EDB
:100980004050296E030E295C02E1660E285C53E29A
:100990008A9A8A88416A426A21EC02F0010E416E0D
:1009A000426A21EC02F0FA0E466E8EEC01F0FA0E6D
:1009B000466E8EEC01F0416A020E426E21EC02F0AE
:1009C000010E416E020E426E21EC02F0030E306EFB
:1009D0000EEC02F04EEC04F02D520CE0416A010ED8
:1009E000426E21EC02F0010E416E020E426E21ECCD
:1009F00002F00AD0416A020E426E21EC02F0010EB2
:100A0000416E426E21EC02F0010E306E0EEC02F0EF
:100A1000100E2A6E090E2B6E010E2E6E320E2F6EE8
:100A2000306AE9EC03F0020E2E6EC80E2F6E306AAB
:100A3000E9EC03F043D02B50295C02E12A50285CFA
:100A40001DE28A9A8A882C6AC7EC03F030520AE0C9
:100A50004EEC04F02D50276E2E6A3C0E2F6E306A3D
:100A6000E9EC03F027502C6E04EC04F0020E2E6E1D
:100A7000C80E2F6E306AE9EC03F020D08A8A8A987B
:100A8000020E2C6EC7EC03F030520EE04EEC04F078
:100A90002D502C6E04EC04F0020E2E6EC80E2F6E3C
:100AA000306AE9EC03F00AD0416A010E426E21EC93
:100AB00002F0010E416E426E21EC02F0010E2C6E2E
:100AC000C7EC03F03052D8B453D73A0E2A02F35091
:100AD0002C6EF4502D6E3A0E2B02F3502D262D5015
:100AE000040802E12C50880804E2740E2A5ED8A0A3
:100AF0002B06010E2E6E320E2F6E306AE9EC03F0DB
:100B000037D792800F013881C16A860EC06E010E00
:100B1000C26EC282C2B2FED7030EC414286E276A08
:100B2000C350271227501A6E28501B6E120058EC23
:100B300004F081EC05F08AEC04F074EC04F067EC4E
:100B400004F0939A93988A9A8A986EEC04F0D08E67
:100B5000C00EF212416A426A21EC02F0010E416EAF
:100B6000426A21EC02F08A8A8A989CEC04F0FDD754
:100B7000D8CF05F0E0CF06F0EACF07F0E9CF08F0D4
:100B8000F4CF09F0F3CF0AF00B6EA3AA03D0A4AA06
:100B900001D004D0A3A804D0A4A802D096EC02F0FF
:100BA00035EC03F09EB27DEC03F0A0A204D0A1A22C
:100BB00002D0EEEC02F00B500AC0F3FF09C0F4FFC4
:100BC00008C0E9FF07C0EAFF06C0E0FF05C0D8FF84
:100BD00010001A6A1B6A20901C6A1D6A166A176A3E
:100BE000186A196A226A20920C6A0D6A20941E6A99
:100BF0001F6A256A97EF05F0EACF01F0E9CF02F00E
:100C0000F4CF03F0F3CF04F0F0A604D0F0A002D0AC
:100C100081EC03F004C0F3FF03C0F4FF02C0E9FF5E
:060C200001C0EAFF110013
:020000040030CA
:0E000000FF38E6FCFF75BBFFFFFFFFFFFFFFB1
:00000001FF
