:020000040000FA
:04000000D0EF00F04D
:08000800D5EF00F0A3881750AA
:04001000736E1200F9
:08001800AEEF00F0F29A0E5069
:10002000176E0F50186EF28A1750196E18501A6E0C
:10003000120010B004D0116A0C6A0D6A1080A3AAD5
:100040002ED0A4AA2CD07450146E116606D0A50E22
:10005000146203D0010E116E22D0115220E014520E
:1000600006E0140413E0020E146218D017D00EEC50
:1000700000F01950156E1A50166E16500C6E155071
:100080000D6E0C50176E06EC00F008D0230E0C6EAF
:10009000450E0D6E0C50176E06EC00F0116AA3A809
:1000A0001200A4A81200A3980D50736E1200030E44
:1000B000C414156E146AC350141214500E6E1550E9
:1000C0000F6EC282146A81B8142A14B08A8A14A0EE
:1000D0008A9A146A81A8142A14B08A8814A08A986B
:1000E000F29412008A0E756E766A080E706E938E08
:1000F000938C900E716E240E726ECF0EA516300E7C
:10010000A312120092800F013881C16A860EC06E60
:10011000010EC26EC282C2B2FED7030EC414136EA9
:10012000126AC350121212500E6E13500F6E870EC9
:10013000D56EF194F294F28A1200400E9B6ED26A50
:10014000780ED36E72EC00F082EC00F0D08EC00E10
:10015000F212939A93988A9A8A98FFD7D8CF05F08B
:10016000E0CF06F0EACF07F0E9CF08F0F4CF09F0CE
:10017000F3CF0AF00B6EA4AAA4B819EC00F0F2B405
:1001800057EC00F00B500AC0F3FF09C0F4FF08C0A1
:10019000E9FF07C0EAFF06C0E0FF05C0D8FF100076
:1001A00010900E6A0F6A9DEF00F0EACF01F0E9CFE0
:1001B00002F0F4CF03F0F3CF04F004C0F3FF03C068
:0C01C000F4FF02C0E9FF01C0EAFF1100DB
:020000040030CA
:0E000000FF38E6FCFF75BBFFFFFFFFFFFFFFB1
:00000001FF
