:020000040000FA
:04030000F7EF05F01E
:080308000DEF06F0BA948A9093
:040310009E921200A7
:08031800C6EF05F0465200009B
:1003200001E11200FD0E00000000000000000000CE
:1003300000000000000000000000000000000000BD
:1003400000000000000000000000000000000000AD
:10035000000000000000000000000000000000009D
:10036000000000000000000000000000000000008D
:10037000000000000000000000000000000000007D
:10038000000000000000000000000000000000006D
:10039000000000000000000000000000FF0FD8A4D3
:1003A000C2D70000000000000000000000000000B4
:1003B000000000000000000000000000000000003D
:1003C000000000000000000000000000000000002D
:1003D000000000000000000000000000000000001D
:1003E000000000000000000000000000000000000D
:1003F00000000000000000000000000000000000FD
:1004000000000000000000000000000000000000EC
:10041000000000000000462E85D71200FA0E466E3E
:100420008EEC01F0FA0E466E8EEC01F0FA0E466E7E
:100430008EEC01F0FA0E466E8EEC01F0302EEED707
:100440001200CD90425206E0420419E0020E4262D0
:100450002DD021D000EE16F0E9504150436E446A91
:10046000D890433644364350E9264450EA22E92ADC
:10047000000E456EEF6AE9064550EF6E17D0415207
:1004800005E18F0E166E6B0E176E10D05F0E186E94
:10049000730E196E0BD0415205E15F0E166E730E8E
:1004A000176E04D08F0E186E6B0E196ECD80120071
:1004B000F0961E503D6E1F503E6EF0863D503F6ED2
:1004C0003E50406E1200030EC4143C6E3B6AC35093
:1004D0003B123B501A6E3C501B6E010E1B5C02E13E
:1004E000DD0E1A5C16E2416A426A21EC02F0010E4E
:1004F000416E426A21EC02F08A9A8A88FA0E466EB0
:100500008EEC01F08A9A8A98FA0E466E8EEC01F013
:10051000F3D7C2821200A0921A503D6E1B503E6E5D
:10052000A0823D503F6E3E50406E120022B802D075
:100530002A6A2288A3AA38D0A4AA36D074503A6E68
:10054000ABA203D0AB98AB8812002A6606D0A50EEA
:100550003A6203D0010E2A6E27D02A5225E03A5281
:1005600003E03A0411E01FD08BEC02F03F503B6EE9
:1005700040503C6E3C50206E3B50216E020E3D6E52
:100580003D50296EA3880FD058EC02F03F503B6ECF
:1005900040503C6E3C50206E3B50216E020E3D6E32
:1005A0003D50296EA3882A6AA3A81200A4A81200AD
:1005B000000E2964120000EE20F0E9503E6A295036
:1005C00002083D6ED8A03E063D50E9263E50EA2284
:1005D000EF50736E2906D8B4A398120022B603D048
:1005E000276A286A2286272A1E0E276001D003D098
:1005F00063EC02F0276A282A030E286001D031D06C
:100600003A6A050E3A602CD000EE0CF0E9503A50F0
:100610003B6E3C6AD8903B363C363B50E9263C501A
:10062000EA22EE503D6E000E3D64EF6601D016D01A
:1006300000EE0CF0E9503A503D6E3E6AD8903D36DF
:100640003E363D50E9263E50EA22EE503F6E3F5284
:10065000D8B4EF063F06E9063F50EF6E3A2AD1D7ED
:10066000286AA1921200CD909EA037D0000E166489
:10067000176601D00CD0FF0E175C02E1FF0E165C6E
:1006800006E21750BF6E1650BE6E9D8401D09D9439
:10069000165204E1175202E1829401D08284000EC6
:1006A0001864196601D00CD0FF0E195C02E1FF0E30
:1006B000185C06E21950686E1850676EA08001D071
:1006C000A090185204E1195202E1829201D0828274
:1006D000630ECF6EBF0ECE6E9E909DA404D09EA4DE
:1006E00002D082949E94A0A004D0A1A002D08292B5
:1006F000A190CD80120022B403D0010E256E228479
:10070000255204E0D58EF19A256A12D0D59EF18A41
:10071000010E256ED6501E6E1F6A386AD750396E8C
:1007200038501E1239501F12D76AD66A010E246E35
:10073000F0901200346A316A326A080E3214336E55
:1007400033661200D89031362E36343634502F644A
:1007500001D003D02F50345E3180322AEED7050EFF
:10076000306001D002D0346A1200A09200EE0CF08A
:10077000E9503050326E336AD890323633363250C8
:10078000E9263350EA22EE50356E355205E1EF523C
:1007900003E1010E316E01D0316AA0823150346E16
:1007A0001200050E30601200A09200EE0CF0E9502D
:1007B0003050336E346AD890333634363350E926AD
:1007C0003450EA22E92A3150356E3250EF6EE90694
:1007D0003550EF6EA08212002650316E336AD890E9
:1007E00031363336326A2650312633503222070EE4
:1007F000315E0F0153513118266E2650316E1200B2
:100800008A80BC6A060EBA6E246601D0FDD7246ABF
:100810001E50366E1F50376E12008A0E756E766A45
:10082000080E706E938E938C900E716E240E726E05
:10083000CF0EA516A38A1200B368B268330EB16E4C
:10084000A292A08212000F015551266E040E516F24
:1008500012000F013A953A93949494928294829262
:100860000A0EBD6E666E496B9F94A290630ECF6EAA
:10087000BF0ECE6E330ECD6E9F909D8012000F0185
:10088000399139938A9093909382030ED56ED76AEB
:10089000D66AF18AF08CF086140EBB6E9F929D8210
:1008A000120022B002D0236A228022B205D0100E9C
:1008B0001C6E090E1D6E2282416A010E426E21ECF1
:1008C00002F0010E416E426E21EC02F0010E306E1C
:1008D000320E316E326AD1EC03F02D6A2E6A2F6A25
:1008E000306A316A040E316012D000EC04F03650E8
:1008F000326E3750336E346A356A32502D2633509B
:100900002E2234502F2235503022312AEBD7D89066
:1009100030322F322E322D32D89030322F322E32CA
:100920002D322D502B6E2E502C6E030E2C5C02E1BE
:10093000660E2B5C58E28A9A8A88416A426A21ECE8
:1009400002F0010E416E426A21EC02F0FA0E466E90
:100950008EEC01F0FA0E466E8EEC01F0416A020E4A
:10096000426E21EC02F0010E416E020E426E21EC4D
:1009700002F0030E306E0EEC02F0ECEC03F031509E
:100980002E6E020E2F6E9AEC03F0345202E02D6AA6
:1009900002D0010E2D6E2D520CE0416A010E426E06
:1009A00021EC02F0010E416E020E426E21EC02F0CB
:1009B0000AD0416A020E426E21EC02F0010E416E35
:1009C000426E21EC02F0010E306E0EEC02F0100EC1
:1009D0001C6E090E1D6E010E306E320E316E326AC3
:1009E000D1EC03F079D01D502C5C02E11C502B5C43
:1009F00067E28A9A8A88306AAFEC03F0345216E0D4
:100A0000ECEC03F031502E6E020E2F6E9AEC03F0D8
:100A1000345202E0306A02D0010E306E3050236E44
:100A2000306A3C0E316E326AD1EC03F023520CE195
:100A3000416A010E426E21EC02F0010E416E020E7F
:100A4000426E21EC02F00AD0416A020E426E21ECA5
:100A500002F0010E416E426E21EC02F0ECEC03F06C
:100A600031502E6E040E2F6E9AEC03F034502D6E22
:100A70002D5206E02D040DE0020E2D621CD00ED08A
:100A8000FA0E466E8EEC01F0FA0E466E8EEC01F018
:100A900023D0010E306E0EEC02F01ED0010E306E2F
:100AA0000EEC02F0FA0E466E8EEC01F0FA0E466E77
:100AB0008EEC01F011D0020E306E0EEC02F00CD074
:100AC0008A8A8A98416A010E426E21EC02F0010E78
:100AD000416E426E21EC02F0010E306EAFEC03F07D
:100AE0003452D8B4FAD63A0E1C02F3502D6EF4509C
:100AF0002E6E3A0E1D02F3502E262E50040802E1EF
:100B00002D50880804E2740E1C5ED8A01D06010E4C
:100B1000306E320E316E326AD1EC03F0DED6928046
:100B20000F013881C16A860EC06E010EC26EC2828C
:100B3000C2B2FED7030EC4142C6E2B6AC3502B1204
:100B40002B501A6E2C501B6E12000DEC04F08FEC23
:100B500005F03FEC04F029EC04F01CEC04F0939A4F
:100B600093988A9A8A9823EC04F0D08EC00EF212E1
:100B7000416A426A21EC02F0010E416E426A21ECA8
:100B800002F08A8A8A9851EC04F0FDD7D8CF05F09C
:100B9000E0CF06F0EACF07F0E9CF08F0F4CF09F094
:100BA000F3CF0AF00B6EA3AA03D0A4AA01D004D0FD
:100BB000A3A804D0A4A802D096EC02F033EC03F072
:100BC0009EB286EC01F0A0A204D0A1A202D0EEEC6D
:100BD00002F00B500AC0F3FF09C0F4FF08C0E9FFA0
:100BE00007C0EAFF06C0E0FF05C0D8FF10001A6A80
:100BF0001B6A2290229222941E6A1F6A246A166A35
:100C0000176A186A196A266A22960C6A0D6A22986F
:100C1000206A216A296AA5EF05F0EACF01F0E9CF41
:100C200002F0F4CF03F0F3CF04F0F0A604D0F0A06C
:100C300002D07BEC03F004C0F3FF03C0F4FF02C05A
:080C4000E9FF01C0EAFF110009
:020000040030CA
:0E000000FF38E6FCFF75BBFFFFFFFFFFFFFFB1
:00000001FF
