:020000040000FA
:0403000046EF04F0D0
:0803080056EF04F08A80BC6A84
:06031000060EBA6E120099
:0803180015EF04F0275200006C
:1003200001E11200FD0E00000000000000000000CE
:1003300000000000000000000000000000000000BD
:1003400000000000000000000000000000000000AD
:10035000000000000000000000000000000000009D
:10036000000000000000000000000000000000008D
:10037000000000000000000000000000000000007D
:10038000000000000000000000000000000000006D
:10039000000000000000000000000000FF0FD8A4D3
:1003A000C2D70000000000000000000000000000B4
:1003B000000000000000000000000000000000003D
:1003C000000000000000000000000000000000002D
:1003D000000000000000000000000000000000001D
:1003E000000000000000000000000000000000000D
:1003F00000000000000000000000000000000000FD
:1004000000000000000000000000000000000000EC
:10041000000000000000272E85D71200FA0E276E7C
:100420008EEC01F0FA0E276E8EEC01F0FA0E276EBC
:100430008EEC01F0FA0E276E8EEC01F01E2EEED738
:100440001200F0961250316E1350326EF086315019
:10045000336E3250346E1200030EC4142B6E2A6AAF
:10046000C3502A122A50106E2B50116EC2821200F5
:10047000A09210502D6E11502E6EA0822D502F6E16
:100480002E50306E120016B402D01B6A1684A3AA36
:1004900038D0A4AA36D074502A6EABA203D0AB9841
:1004A000AB8812001B6606D0A50E2A6203D0010E8F
:1004B0001B6E27D01B5225E02A5203E02A0411E0CC
:1004C0001FD038EC02F02F502B6E30502C6E2C5079
:1004D000146E2B50156E020E2D6E2D501A6EA388C1
:1004E0000FD021EC02F033502B6E34502C6E2C5078
:1004F000146E2B50156E020E2D6E2D501A6EA388A1
:100500001B6AA3A81200A4A81200000E1A6412000D
:1005100000EE14F0E9502E6A1A5002082D6ED8A091
:100520002E062D50E9262E50EA22EF50736E1A0641
:10053000D8B4A398120016B203D0186A196A1682AA
:10054000182A1E0E186001D003D02CEC02F0186A95
:10055000192A030E196001D003D086EC01F0196A44
:10056000A1921200CD909EA037D0000E0C640D66B3
:1005700001D00CD0FF0E0D5C02E1FF0E0C5C06E218
:100580000D50BF6E0C50BE6E9D8401D09D940C52D8
:1005900004E10D5202E1829401D08284000E0E64C7
:1005A0000F6601D00CD0FF0E0F5C02E1FF0E0E5C57
:1005B00006E20F50686E0E50676EA08001D0A090CA
:1005C0000E5204E10F5202E1829201D08282630E48
:1005D000CF6EBF0ECE6E9E909DA404D09EA402D07E
:1005E00082949E94A0A004D0A1A002D08292A19057
:1005F000CD801200BA948A909E92120016B003D059
:10060000010E176E1680175204E0D58EF19A176A04
:1006100010D0D59EF18A010E176ED650126E136A55
:10062000286AD750296E2850121229501312D76AFF
:10063000D66AF0901200CD901F5206E01F0419E018
:10064000020E1F622DD021D000EE0CF0E9501E509A
:10065000206E216AD890203621362050E92621507C
:10066000EA22E92A000E226EEF6AE9062250EF6EB6
:1006700017D01E5205E18F0E0C6E6B0E0D6E10D052
:100680005F0E0E6E730E0F6E0BD01E5205E15F0EE5
:100690000C6E730E0D6E04D08F0E0E6E6B0E0F6E01
:1006A000CD8012008A0E756E766A080E706E938E7B
:1006B000938C900E716E240E726ECF0EA516A38AC7
:1006C0001200B368B268330EB16EA292A08212001B
:1006D0000F013A953A9394949492829482920A0EDE
:1006E000BD6E666E496B9F94A290630ECF6EBF0E77
:1006F000CE6E330ECD6E9F909D8012000F0139910A
:1007000039938A9093909382030ED56ED76AD66AF6
:10071000F18AF08CF086140EBB6E9F929D821200BF
:100720001E6A010E1F6E1BEC03F0010E1E6E1F6E83
:100730001BEC03F01E6A1F6A206A216A226A040EFB
:10074000226016D021EC02F03350236E3450246E18
:10075000256A266A23501E2624501F222550202257
:1007600026502122640E276E8EEC01F0222AE7D754
:10077000D890213220321F321E32D89021322032BE
:100780001F321E321E501C6E1F501D6E060E1D5C49
:1007900002E1CC0E1C5C0CE28A9A8A88010E1E6E65
:1007A0001F6A1BEC03F0010E1E6E0EEC02F0C2D7A6
:1007B0008A8A8A98010E1E6E1F6E1BEC03F0BAD750
:1007C00092800F013881C16A860EC06E010EC26E22
:1007D000C282C2B2FED7030EC4141D6E1C6AC3507F
:1007E0001C121C50106E1D50116E120052EC03F0C2
:1007F000E0EC03F07EEC03F068EC03F061EC03F056
:10080000939A93988A9A8A98D08EC00EF2121E6A92
:100810001F6A1BEC03F0010E1E6E1F6A1BEC03F037
:100820008A8A8A9890EC03F0FDD7D8CF05F0E0CF04
:1008300006F0EACF07F0E9CF08F0F4CF09F0F3CFE4
:100840000AF00B6EA3AA03D0A4AA01D004D0A3A8D7
:1008500004D0A4A802D043EC02F0B2EC02F09EB2A5
:10086000FAEC02F0A0A204D0A1A202D09BEC02F00C
:100870000B500AC0F3FF09C0F4FF08C0E9FF07C02E
:10088000EAFF06C0E0FF05C0D8FF1000106A116A39
:100890001690126A136A0C6A0D6A0E6A0F6A169233
:1008A0001694146A156A1A6AF6EF03F0EACF01F09B
:1008B000E9CF02F0F4CF03F0F3CF04F0F0A604D0B8
:1008C000F0A002D0FEEC02F004C0F3FF03C0F4FF7E
:0A08D00002C0E9FF01C0EAFF1100B9
:020000040030CA
:0E000000FF38E6FCFF75BBFFFFFFFFFFFFFFB1
:00000001FF
