:020000040000FA
:040300003DEF05F0D8
:0803080052EF05F0BA948A904F
:040310009E921200A7
:080318000CEF05F03C5200005F
:1003200001E11200FD0E00000000000000000000CE
:1003300000000000000000000000000000000000BD
:1003400000000000000000000000000000000000AD
:10035000000000000000000000000000000000009D
:10036000000000000000000000000000000000008D
:10037000000000000000000000000000000000007D
:10038000000000000000000000000000000000006D
:10039000000000000000000000000000FF0FD8A4D3
:1003A000C2D70000000000000000000000000000B4
:1003B000000000000000000000000000000000003D
:1003C000000000000000000000000000000000002D
:1003D000000000000000000000000000000000001D
:1003E000000000000000000000000000000000000D
:1003F00000000000000000000000000000000000FD
:1004000000000000000000000000000000000000EC
:100410000000000000003C2E85D71200FA0E3C6E52
:100420008EEC01F0FA0E3C6E8EEC01F0FA0E3C6E92
:100430008EEC01F0FA0E3C6E8EEC01F0242EEED71D
:100440001200CD90385206E0380419E0020E3862EE
:100450002DD021D000EE0CF0E9503750396E3A6AB9
:10046000D89039363A363950E9263A50EA22E92A04
:10047000000E3B6EEF6AE9063B50EF6E17D0375225
:1004800005E18F0E0C6E6B0E0D6E10D05F0E0E6EB2
:10049000730E0F6E0BD0375205E15F0E0C6E730EAC
:1004A0000D6E04D08F0E0E6E6B0E0F6ECD8012008F
:1004B000F0961250336E1350346EF0863350356E12
:1004C0003450366E1200030EC414316E306AC350BD
:1004D00030123050106E3150116E010E115C02E17D
:1004E000DD0E105C16E2376A386A21EC02F0010E6C
:1004F000376E386A21EC02F08A9A8A88FA0E3C6ECE
:100500008EEC01F08A9A8A98FA0E3C6E8EEC01F01D
:10051000F3D7C2821200A0921050336E1150346E85
:10052000A0823350356E3450366E120018B602D0A9
:10053000206A1886A3AA38D0A4AA36D07450306E88
:10054000ABA203D0AB98AB881200206606D0A50EF4
:10055000306203D0010E206E27D0205225E03052A9
:1005600003E0300411E01FD08BEC02F03550316E07
:100570003650326E3250166E3150176E020E336E98
:1005800033501F6EA3880FD058EC02F03550316EF7
:100590003650326E3250166E3150176E020E336E78
:1005A00033501F6EA388206AA3A81200A4A81200CB
:1005B000000E1F64120000EE16F0E950346A1F505E
:1005C0000208336ED8A034063350E9263450EA22AC
:1005D000EF50736E1F06D8B4A398120018B403D05E
:1005E0001D6A1E6A18841D2A1E0E1D6001D003D0CC
:1005F00063EC02F01D6A000E1464156601D00AD087
:100600001E2A030E1E6001D005D01452D8B4150660
:1006100014061E6AA1921200CD909EA037D0000E43
:100620000C640D6601D00CD0FF0E0D5C02E1FF0ED4
:100630000C5C06E20D50BF6E0C50BE6E9D8401D066
:100640009D940C5204E10D5202E1829401D0828407
:10065000000E0E640F6601D00CD0FF0E0F5C02E19D
:10066000FF0E0E5C06E20F50686E0E50676EA080A3
:1006700001D0A0900E5204E10F5202E1829201D00B
:100680008282630ECF6EBF0ECE6E9E909DA404D06C
:100690009EA402D082949E94A0A004D0A1A002D0D7
:1006A0008292A190CD80120018B203D0010E1B6E71
:1006B00018821B5204E0D58EF19A1B6A12D0D59E87
:1006C000F18A010E1B6ED650126E136A2E6AD75035
:1006D0002F6E2E5012122F501312D76AD66A010EA7
:1006E0001A6EF0901200296A266A276A080E2714EB
:1006F000286E28661200D8902636243629362950CE
:10070000256401D003D02550295E2680272AEED704
:10071000A092145205E1155203E1010E236E01D09F
:10072000236AA0822350246E1200A0922350146EDC
:100730002450156EA08212001C50266E286AD89094
:1007400026362836276A1C50262628502722070ED0
:10075000265E0F01535126181C6E1C50266E120087
:100760008A80BC6A060EBA6E1A6601D0FDD71A6A74
:1007700012502C6E13502D6E12008A0E756E766A12
:10078000080E706E938E938C900E716E240E726EA6
:10079000CF0EA516A38A1200B368B268330EB16EED
:1007A000A292A08212000F0155511C6E040E516FCF
:1007B00012000F013A953A93949494928294829203
:1007C0000A0EBD6E666E496B9F94A290630ECF6E4B
:1007D000BF0ECE6E330ECD6E9F909D8012000F0126
:1007E000399139938A9093909382030ED56ED76A8C
:1007F000D66AF18AF08CF086140EBB6E9F929D82B1
:10080000120018B002D0196A1880376A010E386ECB
:1008100021EC02F0010E376E386E21EC02F0236AF3
:10082000246A256A266A276A040E276012D0B0EC73
:1008300003F02C50286E2D50296E2A6A2B6A2850FE
:100840002326295024222A5025222B502622272ACB
:10085000EBD7D8902632253224322332D890263254
:100860002532243223322350216E2450226E030E6F
:10087000225C02E1660E215C4DE28A9A8A88376A20
:10088000386A21EC02F0010E376E386A21EC02F072
:10089000FA0E3C6E8EEC01F0FA0E3C6E8EEC01F01E
:1008A000376A020E386E21EC02F0010E376E020E2E
:1008B000386E21EC02F0030E246E0EEC02F09CEC7C
:1008C00003F02650246E020E256E73EC03F02952BD
:1008D00002E0236A02D0010E236E23520CE0376A35
:1008E000010E386E21EC02F0010E376E020E386EEA
:1008F00021EC02F00AD0376A020E386E21EC02F0C9
:10090000010E376E386E21EC02F0010E246E0EECF3
:1009100002F085D7090E225C02E1100E215C38E25C
:100920008A9A8A8888EC03F0245215E09CEC03F044
:100930002650246E020E256E73EC03F0295202E05D
:10094000236A02D0010E236E2350196E280E236EE7
:10095000246A95EC03F019520CE1376A010E386EE7
:1009600021EC02F0010E376E020E386E21EC02F01F
:100970000AD0376A020E386E21EC02F0010E376E93
:10098000386E21EC02F0010E246E0EEC02F047D717
:100990008A8A8A98376A010E386E21EC02F0010EBD
:1009A000376E386E21EC02F03AD792800F01388111
:1009B000C16A860EC06E010EC26EC282C2B2FED77E
:1009C000030EC414226E216AC35021122150106EEE
:1009D0002250116E1200BDEC03F0D5EC04F0EFECE8
:1009E00003F0D9EC03F0CCEC03F0939A93988A9A35
:1009F0008A98D3EC03F0D08EC00EF212376A386AB0
:100A000021EC02F0010E376E386A21EC02F08A8A7E
:100A10008A9801EC04F0FDD7D8CF05F0E0CF06F0BE
:100A2000EACF07F0E9CF08F0F4CF09F0F3CF0AF0EE
:100A30000B6EA3AA03D0A4AA01D004D0A3A804D00B
:100A4000A4A802D096EC02F00CEC03F09EB286EC67
:100A500001F0A0A204D0A1A202D0EEEC02F00B5053
:100A60000AC0F3FF09C0F4FF08C0E9FF07C0EAFFAE
:100A700006C0E0FF05C0D8FF1000106A116A189088
:100A80001892126A136A1A6A0C6A0D6A0E6A0F6A61
:100A90001C6A1894146A156A1896166A176A1F6AEF
:100AA000EBEF04F0EACF01F0E9CF02F0F4CF03F06E
:100AB000F3CF04F0F0A604D0F0A002D054EC03F081
:100AC00004C0F3FF03C0F4FF02C0E9FF01C0EAFF66
:020AD000110013
:020000040030CA
:0E000000FF38E6FCFF75BBFFFFFFFFFFFFFFB1
:00000001FF
