:020000040000FA
:0400000055EF01F0C7
:0800080084EF01F01200A4AA2C
:10001000FED774504B6E12008CEF01F01200495263
:10002000000001E11200FD0E0000000000000000D1
:1000300000000000000000000000000000000000C0
:1000400000000000000000000000000000000000B0
:1000500000000000000000000000000000000000A0
:100060000000000000000000000000000000000090
:100070000000000000000000000000000000000080
:100080000000000000000000000000000000000070
:100090000000000000000000000000000000FF0F52
:1000A000D8A4C2D70000000000000000000000003B
:1000B0000000000000000000000000000000000040
:1000C0000000000000000000000000000000000030
:1000D0000000000000000000000000000000000020
:1000E0000000000000000000000000000000000010
:1000F0000000000000000000000000000000000000
:1001000000000000000000000000000000000000EF
:100110000000000000000000492E85D7120072B2D6
:10012000A4A8FDD74950736E1200A4AA03D0010EF3
:10013000496E1200496A12008A0E756E766A080EC0
:10014000706E938E938C900E716E240E726E1200F0
:100150004B50F86E4A50F76E4950F66E940EA66EEC
:10016000550EA76EAA0EA76EA6824B50F86E4A5087
:10017000F76E4950F66E4F6A400E4F600BD04E50EE
:10018000EA6E4D50E96EEF50F56E0D004D4A4E2A65
:100190004F2AF2D70A00840EA66E550EA76EAA0E3D
:1001A000A76EA682A6941200456A030E466E476AA1
:1001B000486A400E9B6ED26A780ED36ED2AEFED7DE
:1001C000939A93988A9A8A989CEC00F08A9A8A88E3
:1001D000A50E496E8FEC00F0016AC80E016010D0C8
:1001E00095EC00F0495206E007EC00F0A50E4B62DA
:1001F00001D006D0010E496E0FEC00F0012AEDD7B8
:10020000C80E01604FD007EC00F0496A4B504A6EAF
:1002100007EC00F04B504910436E4A50446E000EFC
:100220004364446601D038D04450400E436001D04E
:1002300003E0400E426E02D04350426E016A4250CB
:1002400001600BD007EC00F000EE02F0E950015025
:10025000E9264B50EF6E012AF2D74550496E4650C1
:100260004A6E47504B6E48504C6E000E4E6E020E5A
:100270004D6EA8EC00F0400E4526000E4622000E02
:100280004722000E4822420E496E8FEC00F0425089
:10029000435ED8A04406C3D7010E496E0FEC00F0B0
:0E02A000FF0002D080EF01F0FFD7D4EF00F096
:020000040030CA
:0E000000FF38E6FCFF75BBFFFFFFFFFFFFFFB1
:00000001FF
