:020000040000FA
:04000000E9EF00F034
:0800080084EF01F01200A4AA2C
:10001000FED774504D6E12008CEF01F0120072B2D8
:10002000A4A8FDD74B50736E12008A0E756E766AC7
:10003000080E706E938E938C900E716E240E726EFD
:1000400012004D50F86E4C50F76E4B50F66E940EF9
:10005000A66E550EA76EAA0EA76EA6824D50F86E1C
:100060004C50F76E4B50F66E516A400E51600BD0FB
:100070005050EA6E4F50E96EEF50F56E0D004F4A4A
:10008000502A512AF2D70A00840EA66E550EA76E8A
:10009000AA0EA76EA682A69412004D50F86E4C5080
:1000A000F76E4B50F66E0800F5504F6E1200016A65
:1000B000476A030E486E496A4A6A400E9B6ED26ACE
:1000C000780ED36EC00E4B6E4C684D6A4E6A4DEC86
:1000D00000F04F28D8A47AD0939A93988A9A8A9855
:1000E00015EC00F08A9A8A8807EC00F04D50026EF9
:1000F000016606D0A50E026203D0010E016EF4D790
:100100000152F2E0020E026201D008D0030E026238
:1001100003D04B6A0FEC00F0016AE6D707EC00F061
:100120004B6A4D504C6E07EC00F04D504B10456E35
:100130004C50466E000E4564466601D038D046509D
:10014000400E456001D003E0400E446E02D04550A1
:10015000446E036A445003600BD007EC00F000EEDD
:1001600004F0E9500350E9264D50EF6E032AF2D710
:1001700047504B6E48504C6E49504D6E4A504E6E33
:10018000000E506E040E4F6E21EC00F0400E47261C
:10019000000E4822000E4922000E4A22420E4B6EEB
:1001A0000FEC00F04450455ED8A04606C3D7420E7F
:1001B000046EC00E4B6E4C684D6A4E6A000E506E57
:1001C000040E4F6E21EC00F0FF0002D080EF01F032
:0601D000FFD757EF00F01D
:020000040030CA
:0E000000FF38E6FCFF75BBFFFFFFFFFFFFFFB1
:00000001FF
